:100000000C9435000C945D000C945D000C945D0024
:100010000C945D000C945D000C945D000C945D00EC
:100020000C945D000C945D000C945D000C945D00DC
:100030000C945D000C945D000C945D000C945D00CC
:100040000C948F010C945D000C94FF010C94D90169
:100050000C945D000C945D000C945D000C945D00AC
:100060000C945D000C945D00370311241FBECFEF8C
:10007000D8E0DEBFCDBF11E0A0E0B1E0E6E2F7E0FE
:1000800002C005900D92A831B107D9F721E0A8E18F
:10009000B1E001C01D92A03CB207E1F710E0C5E35A
:1000A000D0E004C02197FE010E948603C433D1072B
:1000B000C9F70E9431020C9491030C9400003FB7E1
:1000C000F89480911F0190912001A0912101B0919D
:1000D000220126B5A89B05C02F3F19F00196A11D4E
:1000E000B11D3FBFBA2FA92F982F8827820F911DCE
:1000F000A11DB11DBC01CD0142E0660F771F881F15
:10010000991F4A95D1F70895CF92DF92EF92FF920F
:100110000F931F93CF93DF936C017A018B01C0E0A3
:10012000D0E0CE15DF0589F0D8016D918D01D601A3
:10013000ED91FC910190F081E02DC6010995892B8C
:1001400011F47E0102C02196ECCFC701DF91CF915F
:100150001F910F91FF90EF90DF90CF900895FC01D9
:10016000918D828D981761F0828DDF01A80FB11DEE
:100170005D968C91928D9F5F9F73928F90E0089512
:100180008FEF9FEF0895FC01918D828D981731F0CC
:10019000828DE80FF11D858D90E008958FEF9FEF20
:1001A0000895FC01918D228D892F90E0805C9F4FF6
:1001B000821B91098F739927089583E291E00E9431
:1001C000D10021E0892B09F420E0822F0895FC0161
:1001D000848DDF01A80FB11DA35ABF4F2C91848DD0
:1001E00090E001968F739927848FA689B7892C9305
:1001F000A089B1898C9180648C93938D848D9813A0
:1002000006C00288F389E02D80818F7D8083089568
:10021000EF92FF920F931F93CF93DF93EC0181E056
:10022000888F9B8D8C8D981305C0E889F989808112
:1002300085FD24C0F62E0B8D10E00F5F1F4F0F734E
:100240001127E02E8C8DE8120CC00FB607FCFACFF8
:10025000E889F989808185FFF5CFCE010E94E7000A
:10026000F1CF8B8DFE01E80FF11DE35AFF4FF082B5
:100270000B8FEA89FB898081806207C0EE89FF8944
:100280006083E889F98980818064808381E090E0DF
:10029000DF91CF911F910F91FF90EF900895CF9331
:1002A000DF93EC01888D8823C9F0EA89FB8980817E
:1002B00085FD05C0A889B9898C9186FD0FC00FB650
:1002C00007FCF5CF808185FFF2CFA889B9898C9191
:1002D00085FFEDCFCE010E94E700E7CFDF91CF9100
:1002E000089580E090E0892B29F00E94DD008111C3
:1002F0000C9400000895009769F0FC010190002023
:10030000E9F73197AF01481B590BBC0183E291E03B
:100310000C94840080E090E008950E948C031F926A
:100320000F920FB60F9211242F933F938F939F93A9
:10033000AF93BF9380911B0190911C01A0911D016F
:10034000B0911E0130911A0123E0230F2D3720F4C4
:100350000196A11DB11D05C026E8230F0296A11D1F
:10036000B11D20931A0180931B0190931C01A0934F
:100370001D01B0931E0180911F0190912001A09159
:100380002101B09122010196A11DB11D80931F0191
:1003900090932001A0932101B0932201BF91AF91CE
:1003A0009F918F913F912F910F900FBE0F901F90B3
:1003B00018951F920F920FB60F9211242F933F930F
:1003C0004F935F936F937F938F939F93AF93BF935D
:1003D000EF93FF9383E291E00E94E700FF91EF919A
:1003E000BF91AF919F918F917F916F915F914F914D
:1003F0003F912F910F900FBE0F901F9018951F9255
:100400000F920FB60F9211242F938F939F93EF9318
:10041000FF93E0913301F09134018081E091390143
:10042000F0913A0182FD12C0908180913C018F5F72
:100430008F7320913D01821751F0E0913C01F0E073
:10044000ED5DFE4F958F80933C0101C08081FF914F
:10045000EF919F918F912F910F900FBE0F901F9052
:100460001895CF93DF93CDB7DEB7A1970FB6F89469
:10047000DEBF0FBECDBF789484B5826084BD84B5E5
:10048000816084BD85B5826085BD85B5816085BD8F
:1004900080916E00816080936E0010928100809147
:1004A00081008260809381008091810081608093CF
:1004B0008100809180008160809380008091B100F4
:1004C00084608093B1008091B00081608093B0001F
:1004D00080917A00846080937A0080917A008260B3
:1004E00080937A0080917A00816080937A00809175
:1004F0007A00806880937A001092C100E091330105
:10050000F091340182E08083E0912F01F09130017D
:100510001082E0913101F091320180E180831092EC
:100520003B01E0913701F091380186E08083E09152
:100530003501F0913601808180618083E091350141
:10054000F0913601808188608083E0913501F091DF
:100550003601808180688083E0913501F091360119
:1005600080818F7D80839AE0892E912CA12CB12CE3
:1005700080E191E00E947B01C0901801D0901901A8
:10058000C601019690931901809318010D2C000C5F
:10059000EE08FF08F7FE26C0E0912301F091240148
:1005A0000190F081E02D6DE283E291E00995222730
:1005B0003327A9012C193D094E095F0919A28E01A3
:1005C0000F5D1F4FCA01B901A50194010E94640388
:1005D000605DF80162938F012115310541055105D8
:1005E00089F715C0A701960119A28E010F5D1F4F53
:1005F000CA01B901A50194010E946403605DF8017C
:1006000062938F01211531054105510589F7C80114
:100610000E947B0184E191E00E947B010E945F00C7
:100620002B013C0188ECC82ED12CE12CF12C0E942E
:100630005F00DC01CB0184199509A609B709883E42
:100640009340A105B10558F0F1E0CF1AD108E108B7
:10065000F10828EE420E23E0521E611C711CC114E9
:10066000D104E104F10419F70E94710181CFE3E2A2
:10067000F1E01382128288EE93E0A0E0B0E0848380
:100680009583A683B78384E091E09183808385EC92
:1006900090E09587848784EC90E09787868780EC4C
:1006A00090E0918B808B81EC90E0938B828B82EC3D
:1006B00090E0958B848B86EC90E0978B868B118EE7
:1006C000128E138E148E0895A1E21A2EAA1BBB1B44
:1006D000FD010DC0AA1FBB1FEE1FFF1FA217B3070E
:1006E000E407F50720F0A21BB30BE40BF50B661F24
:1006F000771F881F991F1A9469F7609570958095E8
:1007000090959B01AC01BD01CF010895EE0FFF1F35
:100710000590F491E02D099481E090E0F8940C9418
:060720009103F894FFCFE5
:100726000000000008018400D100AF00C3004F01A3
:080736004F6CE1000D0A000008
:00000001FF
