:100000000C940A030C9432030C9432030C943203C4
:100010000C9432030C9432030C9432030C94581158
:100020000C9432030C9432030C9432030C9432037C
:100030000C9432030C9432030C9432030C9432036C
:100040000C940E110C9432030C94DD0D0C94B70D2E
:100050000C9432030C9432030C9432030C9432034C
:100060000C940F0E0C94320305A84CCDB2D44EB9AB
:100070003836A9020C50B9918688083CA6AAAA2A4B
:10008000BE000000803F4E414E494E495459494EF2
:1000900046CDCCCC3D0AD7233C17B7D13877CC2BF3
:1000A000329595E6241FB14F0A000020410000C898
:1000B0004200401C4620BCBE4CCA1B0E5AAEC59D19
:1000C0007400000000003E5B4F5B3E3E6B4F6B3E9A
:1000D0001C3E7C3E1C183C7E3C181C577D571C1C4B
:1000E0005E7F5E1C00183C1800FFE7C3E7FF0018A6
:1000F000241800FFE7DBE7FF30483A060E2629798F
:100100002926407F050507407F05253F5A3CE73CEF
:100110005A7F3E1C1C08081C1C3E7F14227F2214A0
:100120005F5F005F5F06097F017F006689956A60F7
:100130006060606094A2FFA29408047E040810200E
:100140007E201008082A1C08081C2A08081E101007
:1001500010100C1E0C1E0C30383E3830060E3E0EB1
:1001600006000000000000005F000000070007001C
:10017000147F147F14242A7F2A1223130864623602
:10018000495620500008070300001C22410000418E
:10019000221C002A1C7F1C2A08083E0808008070C8
:1001A00030000808080808000060600020100804FB
:1001B000023E5149453E00427F400072494949464E
:1001C0002141494D331814127F1027454545393CCC
:1001D0004A494931412111090736494949364649B9
:1001E00049291E00001400000040340000000814DB
:1001F0002241141414141400412214080201590954
:10020000063E415D594E7C1211127C7F49494936A8
:100210003E414141227F4141413E7F494949417F21
:10022000090909013E414151737F0808087F0041D7
:100230007F41002040413F017F081422417F404020
:1002400040407F021C027F7F0408107F3E414141F5
:100250003E7F090909063E4151215E7F0919294661
:10026000264949493203017F01033F4040403F1F77
:100270002040201F3F4038403F63140814630304AC
:100280007804036159494D43007F4141410204080C
:100290001020004141417F040201020440404040DF
:1002A00040000307080020545478407F2844443815
:1002B0003844444428384444287F3854545418005F
:1002C000087E090218A4A49C787F080404780044DE
:1002D0007D40002040403D007F1028440000417FC9
:1002E00040007C047804787C080404783844444452
:1002F00038FC1824241818242418FC7C080404084A
:10030000485454542404043F44243C4040207C1C62
:100310002040201C3C4030403C44281028444C9055
:1003200090907C4464544C440008364100000077AF
:100330000000004136080002010204023C26232688
:100340003C1EA1A161123A4040207A3854545559BC
:1003500021555579412254547842215554784020F2
:10036000545579400C1E527212395555555939540D
:1003700054545939555454580000457C41000245A5
:100380007D420001457C407D1211127DF028252818
:10039000F07C545545002054547C547C0A097F4914
:1003A00032494949323A4444443A324A4848303A58
:1003B0004141217A3A42402078009DA0A07D3D42F3
:1003C00042423D3D4040403D3C24FF2424487E497C
:1003D00043662B2FFC2F2BFF0929F620C0887E09AE
:1003E0000320545479410000447D413048484A324A
:1003F000384040227A007A0A0A727D0D19317D2632
:1004000029292F28262929292630484D4020380817
:1004100008080808080808382F10C8ACBA2F102898
:1004200034FA00007B000008142A142222142A1433
:10043000085500550055AA55AA55AAFF55FF55FF66
:10044000000000FF00101010FF00141414FF001033
:1004500010FF00FF1010F010F0141414FC0014141E
:10046000F700FF0000FF00FF1414F404FC1414173D
:10047000101F10101F101F1414141F00101010F064
:10048000000000001F101010101F10101010F010AE
:10049000000000FF101010101010101010FF1000BE
:1004A0000000FF140000FF00FF00001F10170000F5
:1004B000FC04F414141710171414F404F40000FFCF
:1004C00000F714141414141414F700F71414141768
:1004D0001410101F101F141414F4141010F010F046
:1004E00000001F101F0000001F14000000FC14007B
:1004F00000F010F01010FF10FF141414FF1410106F
:10050000101F00000000F010FFFFFFFFFFF0F0F0F1
:10051000F0F0FFFFFF0000000000FFFF0F0F0F0FC4
:100520000F3844443844FC4A4A4A347E02020606E4
:10053000027E027E0263554941633844443C0440D4
:100540007E201E2006027E020299A5E7A5991C2A9C
:10055000492A1C4C7201724C304A4D4D303048785B
:100560004830BC625A463D3E494949007E0101017E
:100570007E2A2A2A2A2A44445F444440514A44405D
:1005800040444A51400000FF0103E080FF000008A2
:10059000086B6B083612362436060F090F0600006A
:1005A00018180000001010003040FF0101001F016A
:1005B000011E00191D1712003C3C3C3C00000000CD
:1005C0000002000000080002010000030407000010
:1005D00000000000000000000000250028002B00A3
:1005E00000000000240027002A000404040404047E
:1005F00004040202020202020303030303030102D2
:1006000004081020408001020408102001020408A0
:100610001020951811241FBECFEFD8E0DEBFCDBF4C
:1006200025E0A2EBB3E001C01D92AD39B207E1F7BE
:1006300013E0A0E0B1E0E8E4FCE302C005900D9215
:10064000A23BB107D9F713E0CAE0D3E004C0219779
:10065000FE010E94101EC930D107C9F70E941D1368
:100660000C94221E0C940000FC01918D828D981731
:1006700061F0828DDF01A80FB11D5D968C91928D86
:100680009F5F9F73928F90E008958FEF9FEF089583
:10069000FC01918D828D981731F0828DE80FF11D4C
:1006A000858D90E008958FEF9FEF0895FC01918D67
:1006B000228D892F90E0805C9F4F821B91098F7360
:1006C0009927089589EB94E00E94560321E0892B35
:1006D00009F420E0822F0895FC01848DDF01A80F2A
:1006E000B11DA35ABF4F2C91848D90E001968F735A
:1006F0009927848FA689B7892C93A089B1898C9179
:1007000080648C93938D848D981306C00288F3893E
:10071000E02D80818F7D80830895EF92FF920F936B
:100720001F93CF93DF93EC0181E0888F9B8D8C8D9D
:10073000981305C0E889F989808185FD24C0F62ECB
:100740000B8D10E00F5F1F4F0F731127E02E8C8D64
:10075000E8120CC00FB607FCFACFE889F98980814E
:1007600085FFF5CFCE010E946C03F1CF8B8DFE018A
:10077000E80FF11DE35AFF4FF0820B8FEA89FB89E6
:100780008081806207C0EE89FF896083E889F989EA
:1007900080818064808381E090E0DF91CF911F9120
:1007A0000F91FF90EF900895CF93DF93EC01888D28
:1007B0008823C9F0EA89FB89808185FD05C0A88965
:1007C000B9898C9186FD0FC00FB607FCF5CF8081EB
:1007D00085FFF2CFA889B9898C9185FFEDCFCE0135
:1007E0000E946C03E7CFDF91CF91089580E090E005
:1007F000892B29F00E94620381110C940000089556
:10080000089581E090E03091FA032091F9033217C6
:1008100010F480E090E09195819591090895809180
:10082000FA039091F903891730F48F5F8093FA03EC
:1008300080E090E008958FEF9FEF08958091F90395
:1008400090E02091FA03821B9109089585ED809331
:10085000BC008091BC0084FDFCCF109294040895EC
:100860004091D403262F30E0240F311D2132310571
:10087000DCF4209194042430C9F4FC0180E090E081
:10088000861758F43091D4032191DC01AE54BC4F4B
:10089000A30FB11D2C930196F3CF8091D403680F61
:1008A0006093D40380E0089581E0089582E0089584
:1008B000CF92DF92EF92FF920F931F93CF93DF932C
:1008C0007C01262F972F8A0180919504882391F02F
:1008D000C62FD72F6E01C40ED51ECC15DD0571F0C5
:1008E0006991D701ED91FC910190F081E02DC70154
:1008F0000995F3CF642F822F0E943004C801DF9145
:10090000CF911F910F91FF90EF90DF90CF900895BE
:10091000CF93DF931F92CDB7DEB769832091950403
:100920002223D1F02091B804203240F021E030E0C1
:10093000FC013383228380E090E015C0809196040F
:10094000E82FF0E0E956FB4F998190838F5F809309
:1009500096048093B80405C061E0CE0101960E9420
:10096000300481E090E00F90DF91CF9108950F93D4
:100970001F93CF93DF93DC0155968C91559782306E
:1009800071F0833009F1813009F08CC01496ED913B
:10099000FC911597E41BF50BE21BF30B20C014969A
:1009A000ED91FC911597CF01861B970BBC0161500F
:1009B00071091696ED91FC911797CF01841B950B49
:1009C000AC01421B530B6EC01696ED91FC9117972C
:1009D000CF01861B970BBC0161507109FA0177FDAD
:1009E0001BC116968D919C911797681779070CF08B
:1009F00013C1F7FF04C02E0F3F1FE0E0F0E0149694
:100A00008D919C911597AF01420F531F8417950745
:100A10001CF49C012E1B3F0B121613060CF0FCC09D
:100A2000CB0177FD079643E0959587954A95E1F7C9
:100A30009695982F882797958795E80FF91FE0508E
:100A4000FF4F6770772781E090E001C0880F6A95BB
:100A5000EAF7482F0130110541F088F00230110506
:100A600009F0DAC02E0F3F1F15C02E0F3F1FE217EF
:100A7000F30709F4D1C08081842B8193F8CF80954E
:100A80002E0F3F1FE217F30709F4C6C09081982389
:100A90009193F8CFE217F30709F4BEC08081842751
:100AA0008193F8CF77FDB8C014968D919C911597DE
:100AB000681779070CF0B0C057FF04C0240F351F2A
:100AC00040E050E016968D919C911797FA01E20F45
:100AD000F31F8E179F071CF49C01241B350B121665
:100AE00013060CF099C0A22F842F869586958695C3
:100AF00090E8899F600D711D1124FB01E050FF4FAC
:100B00004770A9F198E0941B492F50E0EA01C65FB5
:100B1000DC4F8881291790F4421B51092FEF30E0F8
:100B200002C0359527954A95E2F7822301301105D9
:100B300041F068F00230110589F06EC001301105F6
:100B400019F42081822B0CC00130110520F480950E
:100B50002081822305C00230110531F420818227D3
:100B60008083A91708F458C0A91BE058FF4FA8308C
:100B700048F10230110559F4EF018A2F98819095C0
:100B80009883C058DF4F88508830C0F730C081E06C
:100B90000130110509F080E08195EF019A2F8883DB
:100BA000C058DF4F98509830D0F788EF8A0F86955D
:100BB0008695869590E8899FE00DF11D1124E058F7
:100BC000FF4FA770AA2341F1B0E0AE5FBC4F8C91FC
:100BD0000130110529F038F002301105D1F01CC0A8
:100BE0009081892B18C080959081892314C088EF4B
:100BF0008A0F86958695869590E8899FE00DF11D70
:100C00001124E058FF4FA77039F0B0E0AE5FBC4F41
:100C10008C91908189278083DF91CF911F910F91D3
:100C200008950F931F93CF93DF93DC01FB0155963B
:100C30008C915597823081F0833019F1813051F5D4
:100C400014968D919C911597BC01641B750BAB019B
:100C500041505109BF0181C014966D917C91159747
:100C6000CB018E1B9F0BFC0116968D919C911797C3
:100C7000BC01641B750BAB0141505109E21BF30B26
:100C800009C016966D917C9117976E1B7F0B621BA6
:100C9000730B63C057FD1CC116968D919C911797DD
:100CA000481759070CF014C1F7FF04C02E0F3F1F5F
:100CB000E0E0F0E014968D919C911597BF01620FD2
:100CC000731F861797071CF49C012E1B3F0B1216EF
:100CD00013060CF0FDC0CA0157FD079663E0959519
:100CE00087956A95E1F79695982F88279795879528
:100CF000E80FF91FE050FF4F4770552781E090E063
:100D000001C0880F4A95EAF7482F0130110541F0DC
:100D100088F00230110509F0DBC02E0F3F1F15C00F
:100D20002E0F3F1FE217F30709F4D2C08081842BF6
:100D30008193F8CF80952E0F3F1FE217F30709F438
:100D4000C7C0908198239193F8CFE217F30709F475
:100D5000BFC0808184278193F8CF57FDB9C0149616
:100D60008D919C911597481759070CF0B1C077FFEA
:100D700004C0260F371F60E070E016968D919C919D
:100D80001797FB01E20FF31F8E179F071CF49C01BE
:100D9000261B370B121613060CF09AC0A22F862FB3
:100DA00086958695869590E8899F400D511D112462
:100DB000FA01E050FF4F6770A9F198E0961B492FA8
:100DC00050E0EA01C65FDC4F8881291790F4421B8E
:100DD00051092FEF30E002C0359527954A95E2F78B
:100DE00082230130110541F068F00230110589F0CD
:100DF0006FC00130110519F42081822B0CC0013025
:100E0000110520F480952081822305C00230110550
:100E100031F4208182278083A91708F459C0A91BC7
:100E2000E058FF4FA83048F10230110559F4EF01A6
:100E30008A2F988190959883C058DF4F88508830CA
:100E4000C0F731C081E00130110509F080E08195E3
:100E5000EF019A2F8883C058DF4F98509830D0F711
:100E600088EF8A0F86958695869560E8869FE00DC7
:100E7000F11D1124E058FF4FA770AA2349F1B0E0FB
:100E8000AE5FBC4F8C910130110529F038F0023073
:100E90001105D9F01DC09081892B03C080959081E8
:100EA0008923808315C088EF8A0F8695869586955D
:100EB00070E8879FE00DF11D1124E058FF4FA770E7
:100EC00039F0B0E0AE5FBC4F8C9190818927E9CFBB
:100ED000DF91CF911F910F910895FC0177FD9AC08A
:100EE00080859185681779070CF094C057FD92C0F2
:100EF00082859385481759070CF08CC0858982300C
:100F000009F07CC084819581DC01A61BB70BBD0173
:100F10006150710986819781FC01E41BF50BAF01DB
:100F2000415051090AC0813041F484819581841B6C
:100F3000950BAB01BC01615071092130310529F0DD
:100F400008F122303105E1F10895FA0157FD379695
:100F5000A3E0F595E795AA95E1F7F695FE2FEE2724
:100F6000F795E7956E0F7F1FFB01E050FF4F47702D
:100F7000552781E090E001C0880F4A95EAF79081FB
:100F8000892B3AC0FA0157FD379623E0F595E7958E
:100F90002A95E1F7F695FE2FEE27F795E7956E0F68
:100FA0007F1FFB01E050FF4F4770552781E090E025
:100FB00001C0880F4A95EAF78095908189231CC06B
:100FC000FA0157FD379683E0F595E7958A95E1F7A5
:100FD000F695FE2FEE27F795E7956E0F7F1FFB0125
:100FE000E050FF4F4770552781E090E001C0880F27
:100FF0004A95EAF79081892780830895833009F024
:1010000092CF86819781861B970BBA01AC01415024
:10101000510993CF08950895FC016370658B848115
:10102000958126813781613039F0633029F09187CD
:101030008087338722870895318720879387828727
:1010400008952F923F924F925F926F927F928F926C
:101050009F92AF92BF92CF92DF92EF92FF920F9347
:101060001F93CF93DF93CDB7DEB76C970FB6F8948D
:10107000DEBF0FBECDBF9C8F8B8F5B011A011F831C
:101080000E833701C982DC0158964D915C915997C6
:101090004115510509F0E5C018968D919C9119975D
:1010A000681779070CF0CAC11A968D919C911B970D
:1010B000281639060CF0C2C18C2C912CFB0136E0AD
:1010C000C39EE00DF11D1124FB87EA871E161F0643
:1010D0000CF0B4C1C40133E0880F991F3A95E1F7D1
:1010E0009D878C87820D931D181619060CF0A6C1DA
:1010F00057968C91811103C0203B08F02F5FAB8D78
:10110000BC8DED91FC9111970680F781E02DCD010A
:101110002A8F09952A8DB5E02B9F90011124F501A6
:101120003596FF87EE87BB82AA822501A9014A195D
:101130005B09598B488BC10108969B8B8A8BE88988
:10114000F989E40DF51DEF53FF4F949198876101E4
:101150003D822C82A885A0FF13C0AB8DBC8DED9184
:10116000FC91B981B13031F40084F185E02D2E81FC
:101170003F8116C00284F385E02DEE80FF801AC007
:10118000EE81FF816E167F06F1F0AB8DBC8DED9187
:10119000FC91B981B13051F40084F185E02D9301C7
:1011A000A601B2018B8D9C8D09950DC00284F3853B
:1011B000E02D7301840194014C815D816A817B8102
:1011C0008B8D9C8D0995E885E695E887FFEFCF1A12
:1011D000DF0A2C813D81280D391D3D832C834A89EE
:1011E0005B89C416D50609F0B5CF5FEF451A550ADD
:1011F0008A819B81880D991D9B838A83AE85BF85DB
:101200004A165B0609F09BCFEE81FF816E167F06C2
:1012100009F4F2C0EB8DFC8DA081B181F981F13030
:1012200079F4B5016B5F7F4F1C96ED91FC911D9792
:10123000830128E030E0A1018B8D9C8D0995DCC0F5
:101240006A857B85681979091A96ED91FC911B973F
:1012500073010C851D859401A1018B8D9C8D0995D1
:10126000CBC0FA0134969491329765917491291B01
:10127000CB01B7E02B9F800D911D1124FA01259120
:1012800034913B8B2A8BFC01459154915B834A83BB
:10129000FC013296C490319654915E873296149137
:1012A0003196D4908981823058F0612E012E000C45
:1012B0007708AD2D0D2C000CBB0BB987A88704C097
:1012C00019861886612C712CAB8DBC8DED91FC912B
:1012D00011970680F781E02DCD010995B9818B2EFC
:1012E000912C689CC001699C900D789C900D1124F4
:1012F000FC01EA0DFB1DFD87EC871C82712C612C23
:10130000E12F110FFF0B95012E0F3F1F3B872A87FF
:10131000AC0CB11CA5014E0F5F1F5F8B4E8BC10142
:101320008D0D911DD7FC9A95998F888F4E856416E7
:1013300008F062C0862D90E048855985480F591FF6
:10134000489D9001499D300D589D300D1124D901C3
:10135000A20DB31DB98BA88BAA84BB844C845D8479
:10136000DC80BA85DB1AE88DF98DE80FF91FFD8B5B
:10137000EC8B8D2D8A0D2E893F89A216B306B9F10B
:10138000877061F48A819B810196EA89FB89AA8131
:10139000BB81EA0FFB1F74909B838A8377FE20C07A
:1013A000AB8DBC8DED91FC91B981B13061F40084BD
:1013B000F185E02D2E813F814C895D89B5018B8DB2
:1013C0009C8D09950DC00284F385E02DEE80FF8091
:1013D0008401940148895989B2018B8D9C8D0995AE
:1013E000770CEFEFAE1ABE0A480C591CC2CF3C81F5
:1013F0003C0D3C8363949ACFAB8DBC8DED91FC91F9
:1014000011970288F389E02DCD016C960FB6F89400
:10141000DEBF0FBECDBFDF91CF911F910F91FF9027
:10142000EF90DF90CF90BF90AF909F908F907F9084
:101430006F905F904F903F902F9009946C960FB6ED
:10144000F894DEBF0FBECDBFDF91CF911F910F91FA
:10145000FF90EF90DF90CF90BF90AF909F908F90D4
:101460007F906F905F904F903F902F900895AF9234
:10147000BF92CF92EF92FF920F931F93CF93DF9380
:10148000EC01262F888D998D009709F040C06A30B5
:1014900059F41D861C862C898E859F8538E0239FF4
:1014A000800D911D112441C06D3009F4AAC08E89B0
:1014B0008823C1F03C898C859D8546E0349F800D52
:1014C000911D112448855985481759075CF41D86DC
:1014D0001C868E859F8548E0349F800D911D1124C8
:1014E0009F878E87EA88FB88088919894E855F85E2
:1014F0006C857D85CC88CE010E9421082C898C8545
:101500009D8536E0239F800D911D112442C06A30D5
:1015100079F41D861C862C89FC013696E4918E8513
:101520009F852E9F800D911D11249F878E8769C0F6
:101530006D3009F466C0FC0134963491631708F4E9
:1015400060C03196E491E61708F45BC0FC01329666
:10155000A590B490462F50E0431B510937E0349FCB
:10156000B001359F700D1124A60EB71EF5013296FD
:1015700034913196E491332311F0E1110DC0F5015E
:101580003496E4912C898C859D85E29F800D911D78
:1015900011249D878C8735C0F501359644915E896D
:1015A000552311F16C89E32FF0E0E40FF11D47FDA5
:1015B000FA956E9FD0016F9FB00D11244C855D850B
:1015C0004A0F5B1FE885F985E417F5076CF41D8663
:1015D0001C86FC013696E4918E859F856E9F800D5A
:1015E000911D11249F878E87EA88FB8808891989B5
:1015F0004E855F856C857D85CC88CE010E94210853
:10160000BECF81E090E0DF91CF911F910F91FF90CD
:10161000EF90CF90BF90AF9008956F927F928F928E
:101620009F92AF92BF92CF92DF92EF92FF920F9371
:101630001F93CF93DF93EC014B015A0169013801ED
:10164000E881F9810680F781E02D0995E881F9812B
:101650000684F785E02D87019601A501B401CE012E
:101660000995E881F981A501460D571D41505109A1
:101670000684F785E02D9601B401CE010995E88135
:10168000F9810484F585E02D9301A501B401CE0113
:101690000995E881F981C80CD91CB601615071091E
:1016A0000484F585E02D9301A501CE010995E8811B
:1016B000F9810288F389E02DCE01DF91CF911F914E
:1016C0000F91FF90EF90DF90CF90BF90AF909F90E1
:1016D0008F907F906F900994CF92DF92EF92FF925C
:1016E0000F931F93CF93DF9300D000D000D0CDB7DE
:1016F000DEB76C01DC01ED91FC916217730789F490
:10170000041715072CF4942F852FA801092F182FE3
:10171000041B150B98012F5F3F4F008CF18DE02DBE
:1017200012C04017510709F5261737072CF4962FDA
:10173000872FB901292F382F261B370B2F5F3F4FDB
:10174000028CF38DE02D8701C601099526960FB610
:10175000F894DEBF0FBECDBFDF91CF911F910F91E7
:10176000FF90EF90DF90CF9008950680F781E02DF5
:101770002D833E834B835C8369837A830995D601ED
:10178000ED91FC910088F189E02D2D813E814B8106
:101790005C8169817A81C6010995D601ED91FC9140
:1017A0000288F389E02DC60126960FB6F894DEBFB5
:1017B0000FBECDBFDF91CF911F910F91FF90EF90A2
:1017C000DF90CF900994EF92FF920F931F93DC016B
:1017D000ED91FC9111971A960D911C911B971896FB
:1017E0002D913C911997048CF58DE02D7B0140E003
:1017F00050E060E070E009951F910F91FF90EF902D
:1018000008954F925F926F927F928F929F92AF92C4
:10181000BF92CF92DF92EF92FF920F931F93CF93DD
:10182000DF9300D0CDB7DEB76C015A013901480112
:10183000DC01ED91FC910680F781E02D69837A83CC
:1018400009956981462E7A81572E640C751CD60144
:10185000ED91FC91461457046CF40484F585E02D59
:1018600087019401A501B201C6010995BFEF4B1A8A
:101870005B0AEDCF0288F389E02DC6010F900F902F
:10188000DF91CF911F910F91FF90EF90DF90CF905C
:10189000BF90AF909F908F907F906F905F904F9090
:1018A0000994AF92BF92CF92DF92EF92FF920F9383
:1018B0001F93CF93DF9300D000D0CDB7DEB75C018C
:1018C0006901DC01ED91FC910680F781E02D4B83ED
:1018D0005C8369837A830995D501ED91FC916981D7
:1018E0007A819B012C0D3D1D215031090088F18921
:1018F000E02D78014B815C818A01C5010995D501F4
:10190000ED91FC910288F389E02DC5010F900F90B5
:101910000F900F90DF91CF911F910F91FF90EF905B
:10192000DF90CF90BF90AF900994AF92BF92CF92CB
:10193000DF92EF92FF920F931F93CF93DF9300D02C
:1019400000D0CDB7DEB75C016901DC01ED91FC91FF
:101950000680F781E02D4B835C8369837A83099548
:10196000D501ED91FC914B815C81C40ED51EB1E097
:10197000CB1AD1080088F189E02D780186016981B0
:101980007A819B01C5010995D501ED91FC910288F1
:10199000F389E02DC5010F900F900F900F90DF910C
:1019A000CF911F910F91FF90EF90DF90CF90BF905C
:1019B000AF9009940895EF92FF920F931F93DC016B
:1019C000ED91FC91048CF58DE02D09951F910F91FF
:1019D000FF90EF9008950F931F93DC01ED91FC9120
:1019E000028CF38DE02D09951F910F9108950F93AF
:1019F0001F93DC01ED91FC91008CF18DE02D099598
:101A00001F910F910895DC01ED91FC910480F58107
:101A1000E02D099408952F923F924F925F926F921A
:101A20007F928F929F92AF92BF92CF92DF92EF926E
:101A3000FF920F931F93CF93DF9300D01F92CDB7E8
:101A4000DEB74C017B836A836A0159011701980153
:101A5000241B350B37FF03C0319521953109C50192
:101A60004A815B81841B950B97FF03C091958195FB
:101A7000910951E059838217930714F019820BC022
:101A80009A2D8B2D5801092F182F9A818B81DB827B
:101A9000CA82C92ED82E8A819B81A816B9065CF409
:101AA0009C2D8D2D6801092F182F9A818B81BB8267
:101AB000AA82A92EB82E2501AA81BB814A1A5B0AE7
:101AC00038016C187D0877FE03C071946194710829
:101AD000720157FE03C0BFEFEB1AFB0AF594E794BF
:101AE000C016D1061CF00FEF1FEF1FC001E010E081
:101AF0001CC0D401ED91FC91B9810084F185E02DE9
:101B00009101BB23C1F04A815B81B601C4010995F3
:101B1000E618F708F7FE04C0C00ED11EE40CF51C51
:101B2000EA81FB813196FB83EA834A815B81A416BB
:101B3000B506FCF604C0A6016A817B81E7CF0F9051
:101B40000F900F90DF91CF911F910F91FF90EF9029
:101B5000DF90CF90BF90AF909F908F907F906F90CD
:101B60005F904F903F902F9008950E94161E1F92F5
:101B70000F920FB60F9211242F933F934F935F93C1
:101B80006F937F938F939F93AF93BF93EF93FF9345
:101B900089EB94E00E946C03FF91EF91BF91AF91AC
:101BA0009F918F917F916F915F914F913F912F9175
:101BB0000F900FBE0F901F9018951F920F920FB6A7
:101BC0000F9211242F938F939F93EF93FF93E091A4
:101BD000C904F091CA048081E091CF04F091D0044F
:101BE00082FD12C090818091D2048F5F8F7320910B
:101BF000D304821751F0E091D204F0E0E754FB4F98
:101C0000958F8093D20401C08081FF91EF919F91C5
:101C10008F912F910F900FBE0F901F9018951F92CC
:101C20000F920FB60F9211242F933F934F935F9310
:101C30006F937F938F939F93AF93BF93EF93FF9394
:101C40008091B900887F803609F49CC068F588329D
:101C500009F45BC090F4803109F454C038F488234F
:101C600009F4F6C0883009F44DC0F6C0883109F493
:101C70004CC0803209F45DC0EFC0803409F468C004
:101C800048F4803309F455C0883309F0E5C08093E7
:101C90009204D8C0803509F44FC0883509F45DC07E
:101CA000883409F0D9C0D6C0883909F4C7C0A8F46F
:101CB000883709F467C038F4883609F463C0803780
:101CC00009F460C0C9C0883809F4B8C0803909F483
:101CD0005FC0803809F0C0C05BC0803B09F486C09B
:101CE00038F4803A09F466C0883A09F47FC0B4C079
:101CF000803C09F4A7C0883C09F4A4C0883B09F4DF
:101D00008AC0AAC080916F0410C090919104809104
:101D10009004981770F5E091910481E08E0F809304
:101D20009104F0E0E059FB4F80818093BB0085EC8B
:101D300086C0809392048EC0E091910481E08E0F62
:101D4000809391048091BB00F0E0E059FB4F8083C9
:101D500090919104809190046EC0E091910481E093
:101D60008E0F809391048091BB00F0E0E059FB4F0F
:101D700080838091930481116DC081E080936E0413
:101D800084EA61C083E0809394041092F803CFCF7B
:101D90008091F803803208F051C0E091F80381E0AF
:101DA0008E0F8093F8038091BB00F0E0E852FC4F67
:101DB0008083BDCF85EC8093BC0010929404809109
:101DC000F803803230F4E091F803F0E0E852FC4F81
:101DD00010826091F80370E0E091D603F091D70390
:101DE00088ED93E009951092F80336C084E0809363
:101DF00094041092D5031092D403E091D203F09191
:101E0000D30309958091D403811105C081E08093AB
:101E1000D4031092B203E091D50381E08E0F80933A
:101E2000D503F0E0EE54FC4F80818093BB0090918D
:101E3000D5038091D403981708F479CF85E880936F
:101E4000BC000AC085EC8093BC001092940404C0CE
:101E5000109292040E942604FF91EF91BF91AF91DE
:101E60009F918F917F916F915F914F913F912F91B2
:101E70000F900FBE0F901F9018953FB7F894809168
:101E8000950590919605A0919705B091980526B576
:101E9000A89B05C02F3F19F00196A11DB11D3FBFA2
:101EA000BA2FA92F982F8827820F911DA11DB11D30
:101EB000BC01CD0142E0660F771F881F991F4A952C
:101EC000D1F70895CF92DF92EF92FF920F931F9375
:101ED000CF93DF936C017A018B01C0E0D0E0CE1587
:101EE000DF0589F0D8016D918D01D601ED91FC914E
:101EF0000190F081E02DC6010995892B11F47E0136
:101F000002C02196ECCFC701DF91CF911F910F91B5
:101F1000FF90EF90DF90CF900895909183059923E3
:101F200039F08EBD00000DB407FEFDCF8EB50895CB
:101F300028E030E040E8E0918605F0918705508187
:101F400090918D05909595239083E0918405F09173
:101F5000850590918C05542F582319F05081952BAD
:101F600003C05081909595239083E0918605F09170
:101F70008705508190918D05952B90834695215032
:101F80003109C9F608952091B8049091B70421321F
:101F900008F04AC0809194048111FCCF32E0309364
:101FA000940431E0309393043FEF30939204109205
:101FB000910420939004A7E9B4E040E754E0FA01CB
:101FC0003E2F341B321718F43D913193F9CF109204
:101FD0006F0420916F04990F922B90936F0490914E
:101FE0006E04913061F410926E0490916F0490939E
:101FF000BB009091BC0093FDF8CF95EC01C095EE2D
:102000009093BC00909194049230E1F390919204EB
:102010009F3F79F080919204803241F08091920448
:10202000803331F084E005C081E003C082E001C06C
:1020300083E0109296041092B804109295040895CB
:10204000CF93C82F80917E058F3F59F1E09188058D
:10205000F0918905808190918E05982B9083E09175
:102060008A05F0918B05208190918F0590959223A0
:102070009083E0918805F0918905208190918E05EB
:102080009095922390838C2F0E948D0FE09188056C
:10209000F0918905908180918E05892B8083CF9165
:1020A000089580917C0591E0909395048093B70406
:1020B000109296041092B80460E086E595E00E94C4
:1020C00088046C2F86E595E00E948804CF910C94DB
:1020D000C30F90E0FC01E250FA4F2491FC01E6515D
:1020E000FA4F8491882399F090E0880F991FFC01A2
:1020F000E052FA4FA591B491FC01EA52FA4F859152
:1021000094918FB7F894EC91E22BEC938FBF0895E4
:1021100090E0FC01EE53FA4F3491FC01E250FA4F8B
:102120002491FC01E651FA4FE491EE2309F43BC0FF
:10213000332339F1333091F038F43130A9F03230B3
:1021400001F584B58F7D12C0373091F03830A1F0A1
:102150003430B9F4809180008F7D03C0809180007D
:102160008F77809380000DC084B58F7784BD09C0C0
:102170008091B0008F7703C08091B0008F7D8093F5
:10218000B000F0E0EE0FFF1FEA52FA4FA591B491B4
:102190008FB7F894EC91611103C020952E2301C0F4
:1021A0002E2B2C938FBF08958F929F92AF92BF9248
:1021B000CF92DF92EF92FF926B017C010E943D0F64
:1021C0004B015C01C114D104E104F104F1F00E945F
:1021D0003D0FDC01CB0188199909AA09BB09883E8A
:1021E0009340A105B10570F321E0C21AD108E108BE
:1021F000F10888EE880E83E0981EA11CB11CC11462
:10220000D104E104F10419F7DDCFFF90EF90DF90E6
:10221000CF90BF90AF909F908F9008951F920F9294
:102220000FB60F9211242F933F938F939F93AF93E9
:10223000BF938091910590919205A0919305B091E3
:1022400094053091900523E0230F2D3720F401965B
:10225000A11DB11D05C026E8230F0296A11DB11DC9
:10226000209390058093910590939205A0939305F8
:10227000B09394058091950590919605A09197054E
:10228000B09198050196A11DB11D8093950590937D
:102290009605A0939705B0939805BF91AF919F9134
:1022A0008F913F912F910F900FBE0F901F90189517
:1022B0001F920F920FB60F9211242F933F934F93BB
:1022C0005F936F937F938F939F93AF93BF93EF939E
:1022D000FF9380916A0490916B04A0916C04B0917B
:1022E0006D04892B8A2B8B2B59F180916904E09125
:1022F0006704F091680490818927808380916A0443
:1023000090916B04A0916C04B0916D04181619069D
:102310001A061B060CF03DC080916A0490916B0474
:10232000A0916C04B0916D040197A109B10980934B
:102330006A0490936B04A0936C04B0936D0429C05D
:1023400080910103E1ECF5E0E4919FEF90930103AC
:10235000E130B9F098F0E230C9F4909170009D7FBF
:102360009093700091E09093B0009091B100987FAD
:1023700094609093B1001092B30008C010926E0068
:1023800005C090916F009D7F90936F0060E00E9468
:102390008810FF91EF91BF91AF919F918F917F91A5
:1023A0006F915F914F913F912F910F900FBE0F90C2
:1023B0001F901895DC01ED91FC910190F081E02DCA
:1023C00009946115710579F0FB0101900020E9F78E
:1023D0003197AF01461B570BDC01ED91FC91028058
:1023E000F381E02D099480E090E008954F925F9290
:1023F0006F927F92EF92FF920F931F93CF93DF9391
:10240000CDB7DEB7A1970FB6F894DEBF0FBECDBF34
:102410007C01FA01CB0119A2223008F42AE08E01D6
:102420000F5D1F4F422E512C612C712CBF01A30157
:1024300092010E94EE1DF901CA01015011096A3092
:1024400014F4605D01C0695CD8016C93232B242BCC
:10245000252B61F7B801C7010E94E111A1960FB6C3
:10246000F894DEBF0FBECDBFDF91CF911F910F91CA
:10247000FF90EF907F906F905F904F9008954F92F4
:102480005F926F927F928F929F92AF92BF92CF9204
:10249000DF92EF92FF926B017C01B42E9B01AC01A5
:1024A0000E94611D882319F065EA73E027C02601A8
:1024B0003701E89477F82FEF3FEF4FE75FE7C3016D
:1024C000B2010E94611D81110DC02FEF3FEF4FE758
:1024D0005FE7C301B2010E94CE1A18161CF469EA24
:1024E00073E00CC02FEF3FEF4FE75FE4C701B60189
:1024F0000E94541D181694F46DEA73E082E695E08C
:10250000FF90EF90DF90CF90BF90AF909F908F9013
:102510007F906F905F904F900C94E1112FEF3FEF01
:102520004FE75FECC701B6010E94CE1A87FDE4CFEA
:1025300020E030E0A901C701B6010E94CE1A87FF52
:102540000BC06DE282E695E00E94DA114C01F7FAC9
:10255000F094F7F8F09402C0812C912CA12C60E04B
:1025600070E080E09FE3AB1441F020E030E040E217
:1025700051E40E94B31CA394F6CF9B01AC01C701A8
:10258000B6010E94471C2B013C010E94251D6B01D6
:102590007C010E94D31A9B01AC01C301B2010E94CD
:1025A000461C2B013C012AE0B701A60182E695E01A
:1025B0000E94F6117C01E80CF91CBB2039F06EE298
:1025C00082E695E00E94DA11E80EF91EDB2CDD2090
:1025D00031F120E030E040E251E4C301B2010E9459
:1025E000341B2B013C010E94251D4B01A12CB12C59
:1025F0002AE0B501A40182E695E00E94F611E80EFA
:10260000F91EC501B4010E94D31A9B01AC01C3019C
:10261000B2010E94461C2B013C01DA94D8CFC701BD
:10262000FF90EF90DF90CF90BF90AF909F908F90F2
:102630007F906F905F904F900895CF93DF931F929C
:10264000CDB7DEB7789484B5826084BD84B58160EF
:1026500084BD85B5826085BD85B5816085BD80916D
:102660006E00816080936E001092810080918100E5
:1026700082608093810080918100816080938100DD
:10268000809180008160809380008091B10084609F
:102690008093B1008091B00081608093B000809100
:1026A0007A00846080937A0080917A0082608093BF
:1026B0007A0080917A00816080937A0080917A001C
:1026C000806880937A001092C10089E00E946910AE
:1026D000E091C904F091CA0492E09083E091C504AE
:1026E000F091C6041082E091C704F091C8048FEC09
:1026F00080831092D104E091CD04F091CE0486E065
:102700008083E091CB04F091CC0480818061808350
:10271000E091CB04F091CC04808188608083E091CB
:10272000CB04F091CC04808180688083E091CB045D
:10273000F091CC0480818F7D808390937D058CE324
:1027400080937C0580917E058F3F09F4B6C080910F
:1027500080050E946910809182050E946910809115
:102760008205082E000C990BFC01E651FA4FE4910A
:10277000F0E0EE0FFF1FEA52FA4F259134913093AB
:10278000890520938805FC01E250FA4FE491E0931B
:102790008E0580918005082E000C990BFC01E651F6
:1027A000FA4FE491F0E0EE0FFF1FEA52FA4F259145
:1027B000349130938B0520938A05FC01E250FA4F47
:1027C000E491E0938F058091830581113CC0809155
:1027D0007E050E94691080917F050E94691080919A
:1027E0007F05082E000C990BFC01E651FA4FE4918D
:1027F000F0E0EE0FFF1FEA52FA4F2591349130932B
:10280000870520938605FC01E250FA4FE491E0939E
:102810008D0580917E05082E000C990BFC01E65178
:10282000FA4FE491F0E0EE0FFF1FEA52FA4F2591C4
:1028300034913093850520938405FC01E250FA4FD2
:10284000E491E0938C0580918305882309F45CC0B2
:102850001FB7F8948091FB03811124C0E4EFF5E0E9
:102860008491E8E0F6E09491E82FF0E0EE0FFF1F8E
:10287000E052FA4FA591B491EC91E92321F461E083
:102880008AE00E9488108AE00E9469108CB58061FD
:102890008CBD8CB580648CBD8DE00E9469108BE08E
:1028A0000E9469108091FB038F5F8093FB031FBF21
:1028B00080E58CBD81E08DBD27C01092FA03109297
:1028C000F903109296041092B8041092940481E0D7
:1028D0008093930410926E0461E082E10E9488105C
:1028E00061E083E10E9488108091B9008E7F80931F
:1028F000B9008091B9008D7F8093B90088E48093FE
:10290000B80085E48093BC008091810587FD1DC0DF
:102910000E94691061E0809181050E94881061E049
:1029200070E080E090E00E94D41060E0809181052A
:102930000E9488106AE070E080E090E00E94D4106D
:1029400061E0809181050E9488108EEA0E9420102B
:1029500085ED0E94201080E80E94201088EA0E94E5
:1029600020108FE10E94201083ED0E94201080E053
:102970000E94201080E40E9420108DE80E94201008
:1029800084E10E94201080E20E94201080E00E94DA
:10299000201081EA0E94201088EC0E9420108AED0D
:1029A0000E94201082E00E94201081E80E942010E6
:1029B0008FE80E94201089ED0E94201081EF0E9474
:1029C00020108BED0E94201080E40E94201084EAE9
:1029D0000E94201086EA0E9420108EE20E942010A1
:1029E0008FEA0E94201080E092E0E0E0F1E0DF0159
:1029F0009C011D9221503040E1F763EF262E65E0E7
:102A0000362E77E0872E76E0972ECC24CA94DC2CE5
:102A1000760111E00FE189EB94E00E94560318164D
:102A200019062CF480916604882309F434C380913C
:102A30001004909111040196909311048093100456
:102A400004970CF414C16AE773E089EB94E00E94E8
:102A5000E1114090100450901104052C000C660800
:102A6000770877FE0EC06DE289EB94E00E94DA11E0
:102A700044275527BA0144195509660977092AE000
:102A800003C02AE0B301A20189EB94E00E94F61191
:102A900063E873E089EB94E00E94E11100E010E04C
:102AA00056E4B52EB801012E000C880B990B0E943C
:102AB000D51A29EF3FE049E450E40E94341B20E09E
:102AC00030E044E353E40E94B31C0E94591D60931C
:102AD0000C0470930D0480930E0490930F0488EB04
:102AE00091E090930B0480930A0480910103893054
:102AF00021F4E1ECF5E0949173C08F3F09F0ABC095
:102B000089E080930103E1ECF5E094919F3F09F4A3
:102B1000A2C0913009F1923009F440C0911160C017
:102B200014BC15BC84B5826084BD85B5816085BD4B
:102B3000F1018491E82FF0E0EE0FFF1FEA52FA4F07
:102B4000859194919093010480930004F401849101
:102B50008093FF0390E046C01092800010928100A5
:102B600080918100886080938100809181008160E4
:102B700080938100F1018491E82FF0E0EE0FFF1FB8
:102B8000EA52FA4F859194919093FE038093FD034E
:102B9000F40184918093FC0391E024C01092B00072
:102BA0001092B1008091B00082608093B00080915B
:102BB000B10081608093B100F1018491E82FF0E0D1
:102BC000EE0FFF1FEA52FA4F85919491909368049B
:102BD00080936704F40184918093690492E002C0B9
:102BE00097FD39C089E099830E94691099819923E2
:102BF00009F488C2923009F47DC29130D1F48091F9
:102C00008100887F81608093810024E037E43093E5
:102C1000890020938800C0920204D0920304E092BD
:102C20000404F092050480916F00826080936F002D
:102C300012C0923081F484E08093B300C0926A04A1
:102C4000D0926B04E0926C04F0926D04809170005D
:102C500082608093700062E070E080E090E00E940B
:102C6000D4100F5F1F4F043B110509F01BCF80915B
:102C70006604882309F454C066E274E086E494E0B4
:102C80000E941B1E66E873E086E494E00E941C1913
:102C90000E94FE18909325048093240466E873E054
:102CA00080E090E00E941C190E94FA1860931404BE
:102CB00070931504809316049093170466E873E0EC
:102CC00080E090E00E941C190E94FA18609318049A
:102CD0007093190480931A0490931B0466E873E0C0
:102CE00080E090E00E941C190E94FA1860931C0476
:102CF00070931D0480931E0490931F0466E873E094
:102D000080E090E00E941C190E94FA186093200451
:102D100070932104809322049093230410926604FC
:102D200081E08093760581E090E090937505809333
:102D30007405909373058093720590936F0580934B
:102D40006E05109271051092700568E873E082E6D6
:102D500095E00E94E11194E1A92E94E0B92E00E0E3
:102D600010E08091240490912504081719070CF0B5
:102D700053C0D5014D905D906D907C9023E333E37B
:102D800043E750E4C301B2010E94CE1A18165CF06A
:102D90001092730510927205E1E0F0E0F093750572
:102DA000E093740521C020E030E040E850E4C30126
:102DB000B2010E94CE1A18166CF08091000388238D
:102DC00049F01092730510927205109275051092D9
:102DD00074050AC021E030E0309375052093740536
:102DE000309373052093720542E0C301B2010E9443
:102DF0003F1281E090E09093750580937405909365
:102E00007305809372050230110534F46BE873E0AA
:102E100082E695E00E94E1110F5F1F4F94E0A90E3A
:102E2000B11C0330110509F09CCFA1E0B0E0B093D4
:102E30007505A0937405B0937305A0937205109265
:102E40006F0510926E0585E090E090937105809378
:102E500070056FE873E082E695E00E94E11183E07F
:102E600080937605E1E0F0E0F0937505E09374055A
:102E7000F0937305E09372058091240490912504EA
:102E800003973CF48AE090E090936F0580936E0581
:102E900006C010926F0510926E058AE090E0909344
:102EA00071058093700569E873E082E695E00E9401
:102EB000E111409020045090210460902204709011
:102EC00023040091240410912504000F111F000F0A
:102ED000111FF801EE5DFC4F208131814281538149
:102EE000C301B2010E94CE1A18165CF0109273054D
:102EF0001092720521E030E030937505209374053F
:102F000024C0F801EE5EFC4F208131814281538163
:102F1000C301B2010E94CE1A18166CF08091000312
:102F2000882349F01092730510927205109275056E
:102F3000109274050AC081E090E09093750580932B
:102F40007405909373058093720542E0C301B2014A
:102F50000E943F12A1E0B0E0B0937505A093740504
:102F6000B0937305A093720581E20E94201080E067
:102F70000E9420108FE70E94201082E20E94201001
:102F800080E00E94201083E00E94201080917E0546
:102F90008F3F89F1E0918805F091890590818091BA
:102FA0008E05892B8083E0918A05F0918B059081B5
:102FB00080918F05892B8083E0918805F0918905A8
:102FC000908180918E0580958923808300E011E0B7
:102FD000F80181918F010E948D0FF3E000301F07EF
:102FE000B9F7E0918805F0918905908180918E056F
:102FF000892B808333C07090B8008CE08093B80038
:1030000000E011E06624639480917C056092950451
:103010008093B704109296041092B80460E486E599
:1030200095E00E948804A12CB12CF801EA0DFB1D4B
:10303000608186E595E00E9488042FEFA21AB20A0B
:1030400030E1A316B10489F70E94C30F005F1F4F40
:1030500083E000301807C1F67092B80068EC70E0A9
:1030600080E090E00E94D41080E092E0E0E0F1E0A7
:10307000DF019C011D9221503040E1F78091000357
:10308000882319F01092000303C081E080930003AD
:103090000E94F603BECC89EB94E00E943403909129
:1030A0001304992309F1E09112048E3371F0AE2FCD
:1030B000B0E0AA5DBB4F8C93EF5FE03218F4E09371
:1030C0001204A9CC00931204A6CCF0E0EA5DFB4FF9
:1030D000108210921304109212041093660410923E
:1030E00011041092100497CC8C3309F094CC1093F7
:1030F000130491CC8091B100887F85608093B100EA
:103100008DE89ACD85B5887F846085BDB7BCC092B7
:103110000604D0920704E0920804F092090480911A
:103120006E00826080936E0096CDE9EBF4E013822E
:10313000128288EE93E0A0E0B0E084839583A683BA
:10314000B78326E333E03183208325EC30E03587F5
:10315000248724EC30E03787268720EC30E0318B61
:10316000208B21EC30E0338B228B22EC30E0358B4E
:10317000248B26EC30E0378B268B118E128E138E2B
:10318000148EE6E5F5E01382128284839583A6838C
:10319000B78386E493E091838083E2E6F5E01382CF
:1031A000128220E830E03583248380E290E0978328
:1031B00086833187208793878287158A15861486B0
:1031C0001786168681E0848B2FEF3FEF338B228B9F
:1031D000318B208B868B178A118E108E86E593E0BB
:1031E000918380838FEF848F80A3868F858F84E087
:1031F000878F0895662777270C945019FC0188273C
:103200009927E89421912032E9F3293010F02E30EB
:10321000C8F32B3241F02D3239F4689404C00E9477
:103220004819820F911D219120532A30C0F31EF4BA
:10323000909581959F4F089549E955E00E94211985
:103240000895FA01A191B081009719F41097E1F067
:10325000CD01DC01CD010D90002011F4C00113C09F
:10326000FB012191222319F02015D9F7F3CFFB019F
:103270002191201519F41E92119606C02223C1F740
:103280000D900020A1F7D001FA01A193B083089519
:103290007AE0979F902D879F802D910D112408959E
:1032A000A0E0B0E0E6E5F9E10C94041CEC017B0140
:1032B0006115710519F0DB018D939C938E010F5FF1
:1032C0001F4F7880872D90E00E94AD1A892B11F056
:1032D000E801F4CFBDE27B1205C00F5F1F4F79807C
:1032E000C1E008C0EBE27E1204C08E010E5F1F4FEA
:1032F0007980C0E06801F1E0CF1AD10843E050E0E6
:103300006EE870E0C6010E94B61A892BF1F46801DC
:1033100022E0C20ED11C45E050E069E870E0C60131
:103320000E94B61A892B21F4680187E0C80ED11CCF
:10333000E114F10419F0D701CD92DC92C111FFC064
:1033400060E070E080E89FE703C143E050E066E89A
:1033500070E0C6010E94B61A892B51F4E114F10401
:1033600009F4F2C00E5F1F4FF70111830083ECC018
:10337000680160E070E0CB0100E010E0F601D0ED04
:10338000D70DDA3058F52C2F2260622E2C2F2870A2
:10339000C2FF05C0211128C00F5F1F4F25C0222387
:1033A00011F001501109A5E0B0E09B01AC010E94B1
:1033B000F51B4B015C01880C991CAA1CBB1CC501A8
:1033C000B4016D0F711D811D911D6839A9E97A073E
:1033D0008A07A9E19A0740F0C66005C0DE3F51F4B4
:1033E000C3FD44C0C8606C2EBFEFCB1ADB0A7080EF
:1033F000C62DC4CF2D2F2F7D2531C1F540814D32F3
:1034000011F4C06106C04B3221F0319621E030E06A
:1034100006C03296D60111964C9122E030E0A0ED24
:10342000A40FAA3018F0E21BF30B20C040E050E0DC
:103430004038BCE05B075CF49A01220F331F220F77
:10344000331F420F531F440F551F4A0F511D319612
:10345000DF0111972C91A0EDA20FAA3048F3C4FF11
:1034600003C0519541955109040F151FC1FF07C0B5
:10347000E114F10421F03197D701ED93FC930E9400
:10348000D31AC370C33019F06B017C0106C06B0105
:103490007C01F7FAF094F7F8F09420E030E0A9010D
:1034A000C701B6010E94CE1A882309F445C017FF50
:1034B00006C0119501951109C5EAD0E002C0CDEB17
:1034C000D0E05E01B8E1AB1AB1084601BE2DAF2DC8
:1034D00090E2E92EF12C0E151F0584F0FE012591D6
:1034E000359145915491B4018B2F9A2F0E94341B32
:1034F0004B01B82FA92F0E191F09EDCF2497F59472
:10350000E794CA15DB0539F76401EB2EFA2E8E2DF0
:10351000880F8F2D881F8F3F49F020E030E0A901F0
:10352000C701B6010E94CE1A811106C082E290E066
:1035300090939C0580939B05C701B60109C060E08C
:1035400070E080E89FEF04C060E070E080EC9FE7EF
:10355000CDB7DEB7EEE00C94201C91110C94A11BAA
:10356000803219F089508550C8F70895FB01DC01BD
:103570004150504088F08D9181341CF08B350CF413
:10358000805E659161341CF06B350CF4605E861BC7
:10359000611171F3990B0895881BFCCF0E94101BD9
:1035A00008F481E00895E89409C097FB3EF49095F3
:1035B0008095709561957F4F8F4F9F4F9923A9F00C
:1035C000F92F96E9BB279395F6958795779567959B
:1035D000B795F111F8CFFAF4BB0F11F460FF1BC0DF
:1035E0006F5F7F4F8F4F9F4F16C0882311F096E972
:1035F00011C0772321F09EE8872F762F05C0662320
:1036000071F096E8862F70E060E02AF09A95660FD8
:10361000771F881FDAF7880F9695879597F9089591
:10362000990F0008550FAA0BE0E8FEEF16161706D3
:10363000E807F907C0F012161306E407F50798F03B
:10364000621B730B840B950B39F40A2661F0232B54
:10365000242B252B21F408950A2609F4A140A695D0
:103660008FEF811D811D08950E94471B0C94BB1B89
:103670000E94AD1B38F00E94B41B20F0952311F07E
:103680000C94A41B0C94AA1B11240C94EF1B0E94F5
:10369000CC1B70F3959FC1F3950F50E0551F629FAF
:1036A000F001729FBB27F00DB11D639FAA27F00D9B
:1036B000B11DAA1F649F6627B00DA11D661F829FC2
:1036C0002227B00DA11D621F739FB00DA11D621FA7
:1036D000839FA00D611D221F749F3327A00D611DC4
:1036E000231F849F600D211D822F762F6A2F1124A6
:1036F0009F5750409AF0F1F088234AF0EE0FFF1FD9
:10370000BB1F661F771F881F91505040A9F79E3F2F
:10371000510580F00C94A41B0C94EF1B5F3FE4F365
:10372000983ED4F3869577956795B795F795E79585
:103730009F5FC1F7FE2B880F911D9695879597F98E
:10374000089599278827089597F99F6780E870E082
:1037500060E008959FEF80EC089500240A94161607
:10376000170618060906089500240A94121613066F
:10377000140605060895092E0394000C11F48823FD
:1037800052F0BB0F40F4BF2B11F460FF04C06F5F19
:103790007F4F8F4F9F4F089557FD9058440F551FEF
:1037A00059F05F3F71F04795880F97FB991F61F0C3
:1037B0009F3F79F087950895121613061406551F3A
:1037C000F2CF4695F1DF08C0161617061806991FA6
:1037D000F1CF86957105610508940895E894BB279B
:1037E00066277727CB0197F908950E94371CA59F7C
:1037F000900DB49F900DA49F800D911D11240895EC
:103800002F923F924F925F926F927F928F929F92F0
:10381000AF92BF92CF92DF92EF92FF920F931F93DE
:10382000CF93DF93CDB7DEB7CA1BDB0B0FB6F8948F
:10383000DEBF0FBECDBF09942A88398848885F84CF
:103840006E847D848C849B84AA84B984C884DF8040
:10385000EE80FD800C811B81AA81B981CE0FD11D24
:103860000FB6F894DEBF0FBECDBFED010895A29F45
:10387000B001B39FC001A39F700D811D1124911D44
:10388000B29F700D811D1124911D08955058BB27C2
:10389000AA270E945E1C0C94BB1B0E94AD1B38F033
:1038A0000E94B41B20F039F49F3F19F426F40C94C5
:1038B000AA1B0EF4E095E7FB0C94A41BE92F0E94D1
:1038C000CC1B58F3BA17620773078407950720F0DB
:1038D00079F4A6F50C94EE1B0EF4E0950B2EBA2F9E
:1038E000A02D0B01B90190010C01CA01A001112406
:1038F000FF27591B99F0593F50F4503E68F11A16B2
:10390000F040A22F232F342F4427585FF3CF469542
:1039100037952795A795F0405395C9F77EF41F1664
:10392000BA0B620B730B840BBAF09150A1F0FF0F2E
:10393000BB1F661F771F881FC2F70EC0BA0F621F1A
:10394000731F841F48F4879577956795B795F7950A
:103950009E3F08F0B0CF9395880F08F09927EE0F9F
:103960009795879508950E94C71C0C94BB1B0E94D5
:10397000B41B58F00E94AD1B40F029F45F3F29F0C2
:103980000C94A41B51110C94EF1B0C94AA1B0E94C5
:10399000CC1B68F39923B1F3552391F3951B550B79
:1039A000BB27AA2762177307840738F09F5F5F4F12
:1039B000220F331F441FAA1FA9F335D00E2E3AF051
:1039C000E0E832D091505040E695001CCAF72BD069
:1039D000FE2F29D0660F771F881FBB1F26173707BA
:1039E0004807AB07B0E809F0BB0B802DBF01FF27EC
:1039F00093585F4F3AF09E3F510578F00C94A41B0A
:103A00000C94EF1B5F3FE4F3983ED4F386957795D3
:103A10006795B795F7959F5FC9F7880F911D9695A4
:103A2000879597F90895E1E0660F771F881FBB1F00
:103A3000621773078407BA0720F0621B730B840BAD
:103A4000BA0BEE1F88F7E09508950E94D41B88F00A
:103A50009F5798F0B92F9927B751B0F0E1F0660F52
:103A6000771F881F991F1AF0BA95C9F714C0B13093
:103A700091F00E94EE1BB1E008950C94EE1B672FAD
:103A8000782F8827B85F39F0B93FCCF386957795C2
:103A90006795B395D9F73EF49095809570956195AB
:103AA0007F4F8F4F9F4F08950E94101B08F48FEF98
:103AB00008959F930E94681D0F9007FCEE5F0C9481
:103AC000911D0E94101B880B990B08950C94AA1B42
:103AD0000E94D41BD8F3E894E0E0BB279F57F0F096
:103AE0002AED3FE049EC06C0EE0FBB0F661F771FC3
:103AF000881F28F0B23A62077307840728F0B25A89
:103B0000620B730B840BE3959A9572F7803830F44F
:103B10009A95BB0F661F771F881FD2F790480C94A9
:103B2000A71DEF93E0FF07C0A2EA2AED3FE049ECB2
:103B30005FEB0E945E1C0E94BB1B0F90039401FC74
:103B40009058E8E6F0E00C94B31D9F3F31F091509F
:103B500020F4879577956795B795880F911D969571
:103B6000879597F908959F938F937F936F93FF9312
:103B7000EF939B01AC010E94341BEF91FF910E94D7
:103B8000C71D2F913F914F915F910C94341BDF9390
:103B9000CF931F930F93FF92EF92DF927B018C01E3
:103BA000689406C0DA2EEF010E94471BFE01E894DC
:103BB000A5912591359145915591A6F3EF010E946C
:103BC0005E1CFE019701A801DA9469F7DF90EF907F
:103BD000FF900F911F91CF91DF910895A1E21A2ECE
:103BE000AA1BBB1BFD010DC0AA1FBB1FEE1FFF1FA1
:103BF000A217B307E407F50720F0A21BB30BE40BF1
:103C0000F50B661F771F881F991F1A9469F7609537
:103C10007095809590959B01AC01BD01CF010895F1
:103C2000EE0FFF1F0590F491E02D099481E090E0E4
:103C3000F8940C94221EFB01DC0101900D920020EF
:083C4000E1F70895F894FFCFAD
:103C4800000000000000000000000000000000006C
:103C5800000000000000000000000000000000005C
:103C6800000000000000000000000000000000004C
:103C780000000000000000000000000000000080BC
:103C8800808000000000000000000000000000002C
:103C9800008080C0C000000000000000000000009C
:103CA800000000000000000000000000000000000C
:103CB80000000000000000000000000000000000FC
:103CC80000000000000000000000000000000000EC
:103CD8000000000080C0E0F0F8FCF8E00000000000
:103CE800000000000000000000000000008080804C
:103CF800808000808000000000808080808000FF3D
:103D0800FFFF0000000080808080000080800000AD
:103D180080FFFF808000808000808080800080801D
:103D28000000000000808000008C8E84000080F875
:103D3800F8F880000000000000000000000000000B
:103D4800F0F0F0F0F0F0F0F0F0F0F0F0E0E0C0802B
:103D580000E0FCFEFFFFFF7FFFFFFFFFFF0000000A
:103D68000000000000000000000000FEFFC7010185
:103D7800010183FFFF00007CFEC70101010183FFF1
:103D8800FFFF0038FEC78301010183C7FFFF000062
:103D980001FFFF010100FFFF0701010100007FFF94
:103DA80080000000FFFF7F0000FFFFFF000001FF11
:103DB800FFFF0100000000000000000000000000FC
:103DC800030F3F7F7FFFFFFFFFFFFFFFE7C7C78F9F
:103DD8008F9FBFFFFFC3C0F0FFFFFFFFFFFCFCFC8E
:103DE800FCFCFCFCFCF8F8F0F0E0C0000103030365
:103DF800030301030300000000010303030301019F
:103E08000301000000010303030301010303000091
:103E1800000303000000030300000000000000018D
:103E28000303030303010000000103010000000372
:103E38000301000000000000000000000000000076
:103E480001FF000103070F1F3F7F0080C0E0F0F86B
:103E5800FCFE00000000000080400000004100005F
:103E680040410000000033337340C3F5F0406666FC
:103E78003641000000008D03620F560334034803E7
:103E8800D40300000000880458041E040F04010431
:103E9800000400000000370A620F6D070A0D030DC9
:103EA800DB0CF70CEB0C0B0DDA0C0C080B08B70449
:103EB8001106010CE30B6C0B0D0B53656D2064614F
:103EC8007461000D0A002C00202000207C20002DA9
:103ED8002D2D2D2D2D2D2D2D2D2D2D2D2D2D2D2D0A
:103EE8002D2D2D2D006E616E00696E66006F766651
:023EF8000000C8
:00000001FF
