:100000000C945D000C9485000C9485000C94850084
:100010000C9485000C9485000C9485000C9485004C
:100020000C9485000C9485000C9485000C9485003C
:100030000C9485000C9485000C9485000C9485002C
:100040000C9451010C9485000C9485000C9485004F
:100050000C9485000C9485000C9485000C9485000C
:100060000C9485000C94850000000008000201003B
:100070000003040700000000000000000000000072
:10008000250028002B0000000000240027002A0083
:10009000040404040404040402020202020203032E
:1000A0000303030301020408102040800102040836
:1000B0001020010204081020CB0211241FBECFEF34
:1000C000D8E0DEBFCDBF11E0A0E0B1E0EEEDF6E09C
:1000D00002C005900D92A030B107D9F721E0A0E051
:1000E000B1E001C01D92A632B207E1F710E0CDE504
:1000F000D0E004C02197FE010E946703CC35D107F0
:10010000C9F70E949B010C946D030C94000090E0D1
:10011000FC01EC55FF4F2491FC01E057FF4F849107
:10012000882399F090E0880F991FFC01EA57FF4F50
:10013000A591B491FC01E458FF4F859194918FB73C
:10014000F894EC91E22BEC938FBF089590E0FC01C2
:10015000E859FF4F3491FC01EC55FF4F2491FC010D
:10016000E057FF4FE491EE2309F43BC0332339F10C
:10017000333091F038F43130A9F0323001F584B5E4
:100180008F7D12C0373091F03830A1F03430B9F49F
:10019000809180008F7D03C0809180008F77809355
:1001A00080000DC084B58F7784BD09C08091B000F8
:1001B0008F7703C08091B0008F7D8093B000F0E016
:1001C000EE0FFF1FE458FF4FA591B4918FB7F8943D
:1001D000EC91611103C020952E2301C02E2B2C938E
:1001E0008FBF08953FB7F894809122019091230129
:1001F000A0912401B091250126B5A89B05C02F3FF1
:1002000019F00196A11DB11D3FBFBA2FA92F982F3C
:100210008827820F911DA11DB11DBC01CD0142E0B7
:10022000660F771F881F991F4A95D1F708958F92FF
:100230009F92AF92BF92CF92DF92EF92FF926B01AB
:100240007C010E94F2004B015C01C114D104E10465
:10025000F104F1F00E94F200DC01CB018819990948
:10026000AA09BB09883E9340A105B10570F321E0BE
:10027000C21AD108E108F10888EE880E83E0981EC2
:10028000A11CB11CC114D104E104F10419F7DDCFA4
:10029000FF90EF90DF90CF90BF90AF909F908F90A6
:1002A00008951F920F920FB60F9211242F933F9330
:1002B0008F939F93AF93BF9380911E0190911F01E5
:1002C000A0912001B091210130911D0123E0230F65
:1002D0002D3720F40196A11DB11D05C026E8230F7E
:1002E0000296A11DB11D20931D0180931E019093C4
:1002F0001F01A0932001B0932101809122019091D0
:100300002301A0912401B09125010196A11DB11DE9
:100310008093220190932301A0932401B09325019F
:10032000BF91AF919F918F913F912F910F900FBEF1
:100330000F901F901895789484B5826084BD84B521
:10034000816084BD85B5826085BD85B5816085BDD0
:1003500080916E00816080936E0010928100809188
:100360008100826080938100809181008160809310
:100370008100809180008160809380008091B10035
:1003800084608093B1008091B00081608093B00060
:1003900080917A00846080937A0080917A008260F4
:1003A00080937A0080917A00816080937A008091B6
:1003B0007A00806880937A001092C10080911201C7
:1003C000909113018A3591055CF081E080931601CC
:1003D000809317018AE590E09093150180931401B2
:1003E0008DE00E948700C0E0D0E00DE210E088E7D9
:1003F000A82EB12C61E08DE00E94A6008091120130
:10040000909113018D974CF081E0809316018093B9
:100410001701109315010093140164EF71E080E05F
:1004200090E00E94170160E08DE00E94A60068EE57
:1004300073E080E090E00E9417018091120190919A
:100440001301883791054CF081E080931601809369
:100450001701B0921501A09214010E94F200C09001
:100460000A01D0900B01E0900C01F0900D01DC012D
:10047000CB018C199D09AE09BF09C0900E01D09027
:100480000F01E0901001F09011018C159D05AE0553
:10049000BF0550F00E94F20060930A0170930B01B7
:1004A00080930C0190930D010E94F200C0900A010C
:1004B000D0900B01E0900C01F0900D012B013C015C
:1004C0004C185D086E087F08809117018823A1F100
:1004D00010921701C0900201D0900301E090040136
:1004E000F0900501A0911401B09115014091060111
:1004F0005091070160910801709109019A01AB01C7
:100500002C193D094E095F090E942E03209112010A
:1005100030911301032E000C440B550B0E94040371
:10052000C20ED31EE41EF51EC0921901D0921A010C
:10053000E0921B01F0921C018091190190911A0127
:10054000A0911B01B0911C0184159505A605B70566
:1005500088F0809116018823C1F0809118018111E3
:1005600014C061E0809100010E94A60081E08093A8
:1005700018010BC080911801882339F060E0809148
:1005800000010E94A60010921801209709F432CFB2
:100590000E9400002FCFCF93DF93C0E0D1E080E234
:1005A0009EE4A0E0B0E08E879F87A88BB98B84EB98
:1005B00090E09B8B8A8B1D8A1C8A1E8A1F8A188E4C
:1005C000198E1A8E1B8E1C8E82E090E09983888390
:1005D00088EE93E0A0E0B0E08A839B83AC83BD8388
:1005E00080ED97E0A0E0B0E08E839F83A887B98775
:1005F00082E00E9487000E94F2006A877B878C87D6
:100600009D87DF91CF910895052E97FB1EF40094EE
:100610000E941B0357FD07D00E94360307FC03D03E
:100620004EF40C941B0350954095309521953F4F07
:100630004F4F5F4F089590958095709561957F4FCE
:100640008F4F9F4F08950E945803A59F900DB49F10
:10065000900DA49F800D911D11240895B7FF0C9457
:1006600023030E942303821B930B0895A1E21A2EF9
:10067000AA1BBB1BFD010DC0AA1FBB1FEE1FFF1F46
:10068000A217B307E407F50720F0A21BB30BE40B96
:10069000F50B661F771F881F991F1A9469F76095DD
:1006A0007095809590959B01AC01BD01CF01089597
:1006B000A29FB001B39FC001A39F700D811D1124A3
:1006C000911DB29F700D811D1124911D0895EE0F93
:0E06D000FF1F0590F491E02D0994F894FFCFE0
:00000001FF
