:100000000C9435000C945D000C945D000C945D0024
:100010000C945D000C945D000C945D000C945D00EC
:100020000C945D000C945D000C945D000C945D00DC
:100030000C945D000C945D000C945D000C945D00CC
:100040000C94F0020C945D000C9460030C943A0341
:100050000C945D000C945D000C945D000C945D00AC
:100060000C945D000C945D00AA0511241FBECFEF17
:10007000D8E0DEBFCDBF11E0A0E0B1E0E4E8F0E100
:1000800002C005900D92A632B107D9F721E0A6E291
:10009000B1E001C01D92A73EB207E1F710E0C5E351
:1000A000D0E004C02197FE010E943508C433D10777
:1000B000C9F70E9492030C9440080C940000E09150
:1000C0004A01F0914B010190F081E02D682F8AE404
:1000D00091E009948E3008F08E5087708064809390
:1000E0007C0080917A00806480937A0080917A000D
:1000F00086FDFCCF809178002091790090E0922BD2
:1001000008953FB7F8948091460190914701A091DE
:100110004801B091490126B5A89B05C02F3F19F0B1
:100120000196A11DB11D3FBFBA2FA92F982F882777
:10013000820F911DA11DB11DBC01CD0142E0660FD2
:10014000771F881F991F4A95D1F708958F929F9224
:10015000AF92BF92CF92DF92EF92FF926B017C0140
:100160000E9481004B015C01C114D104E104F1043F
:10017000F1F00E948100DC01CB0188199909AA09DC
:10018000BB09883E9340A105B10570F321E0C21A76
:10019000D108E108F10888EE880E83E0981EA11CC2
:1001A000B11CC114D104E104F10419F7DDCFFF90B3
:1001B000EF90DF90CF90BF90AF909F908F90089579
:1001C000CF92DF92EF92FF920F931F93CF93DF9323
:1001D0006C017A018B01C0E0D0E0CE15DF0589F01B
:1001E000D8016D918D01D601ED91FC910190F081C6
:1001F000E02DC6010995892B11F47E0102C02196DC
:10020000ECCFC701DF91CF911F910F91FF90EF903D
:10021000DF90CF900895FC01918D828D981761F049
:10022000828DDF01A80FB11D5D968C91928D9F5F2D
:100230009F73928F90E008958FEF9FEF0895FC01D8
:10024000918D828D981731F0828DE80FF11D858D8B
:1002500090E008958FEF9FEF0895FC01918D228D1E
:10026000892F90E0805C9F4F821B91098F739927A3
:1002700008958AE491E00E942D0121E0892B09F480
:1002800020E0822F0895FC01848DDF01A80FB11DAD
:10029000A35ABF4F2C91848D90E001968F739927BC
:1002A000848FA689B7892C93A089B1898C918064A9
:1002B0008C93938D848D981306C00288F389E02D6A
:1002C00080818F7D80830895EF92FF920F931F931B
:1002D000CF93DF93EC0181E0888F9B8D8C8D9813F9
:1002E00005C0E889F989808185FD24C0F62E0B8D33
:1002F00010E00F5F1F4F0F731127E02E8C8DE81257
:100300000CC00FB607FCFACFE889F989808185FF18
:10031000F5CFCE010E944301F1CF8B8DFE01E80F96
:10032000F11DE35AFF4FF0820B8FEA89FB89808130
:10033000806207C0EE89FF896083E889F98980813E
:100340008064808381E090E0DF91CF911F910F91D5
:10035000FF90EF900895CF93DF93EC01888D882371
:10036000C9F0EA89FB89808185FD05C0A889B98922
:100370008C9186FD0FC00FB607FCF5CF808185FFFD
:10038000F2CFA889B9898C9185FFEDCFCE010E946B
:100390004301E7CFDF91CF91089580E090E0892B72
:1003A00029F00E94390181110C94000008950097F2
:1003B00069F0FC0101900020E9F73197AF01481B7B
:1003C000590BBC018AE491E00C94E00080E090E0DD
:1003D00008958F929F92AF92BF920F931F93CF93E6
:1003E000DF93CDB7DEB7A1970FB6F894DEBF0FBE8F
:1003F000CDBF19A2423008F44AE08E010F5D1F4FB5
:10040000842E912CA12CB12CA50194010E941308DB
:10041000E62FB901CA0101501109EA3014F4E05D78
:1004200001C0E95CD801EC93232B242B252B61F729
:10043000C8010E94D701A1960FB6F894DEBF0FBE87
:10044000CDBFDF91CF911F910F91BF90AF909F9043
:100450008F9008958F929F92AF92BF92CF92DF922A
:10046000EF92FF92CF93DF936B017C019B01AC0174
:100470000E940E08882319F080E191E027C0460110
:100480005701E894B7F82FEF3FEF4FE75FE7C5015B
:10049000B4010E940E0881110DC02FEF3FEF4FE70E
:1004A0005FE7C501B4010E94440618161CF484E1FC
:1004B00091E00CC02FEF3FEF4FE75FE4C701B601BB
:1004C0000E949C07181674F488E191E0DF91CF91A7
:1004D000FF90EF90DF90CF90BF90AF909F908F9064
:1004E0000C94D7012FEF3FEF4FE75FECC701B60148
:1004F0000E94440687FDE8CF20E030E0A901C70153
:10050000B6010E94440687FF09C08DE20E945F0089
:10051000EC01F7FAF094F7F8F09402C0C0E0D0E0F4
:100520002AE037ED43EA5BE3C701B6010E94D80534
:100530004B015C010E94BB066B017C010E94EA0634
:100540009B01AC01C501B4010E94D7054B015C01C0
:100550004AE0C701B6010E94E901C80FD91F8EE227
:100560000E945F00C80FD91F20E030E040E251E454
:10057000C501B4010E94A1074B015C010E94BB06AA
:100580006B01E12CF12C4AE0C701B6010E94E901A0
:10059000C80FD91FC701B6010E94EA069B01AC0132
:1005A000C501B4010E94D70520E030E040E251E4EB
:1005B0000E94A1070E94BB0680E090E04AE00E94F2
:1005C000E9018C0F9D1FDF91CF91FF90EF90DF909D
:1005D000CF90BF90AF909F908F9008950E943B085E
:1005E0001F920F920FB60F9211242F933F938F9368
:1005F0009F93AF93BF938091420190914301A0914B
:100600004401B09145013091410123E0230F2D3782
:1006100020F40196A11DB11D05C026E8230F029606
:10062000A11DB11D2093410180934201909343018C
:10063000A0934401B09345018091460190914701F8
:10064000A0914801B09149010196A11DB11D80936F
:10065000460190934701A0934801B0934901BF918F
:10066000AF919F918F913F912F910F900FBE0F905F
:100670001F9018951F920F920FB60F9211242F936F
:100680003F934F935F936F937F938F939F93AF931A
:10069000BF93EF93FF938AE491E00E944301FF919F
:1006A000EF91BF91AF919F918F917F916F915F91EA
:1006B0004F913F912F910F900FBE0F901F90189563
:1006C0001F920F920FB60F9211242F938F939F9327
:1006D000EF93FF93E0915A01F0915B018081E091EB
:1006E0006001F091610182FD12C0908180916301EF
:1006F0008F5F8F7320916401821751F0E091630145
:10070000F0E0E65BFE4F958F8093630101C080812E
:10071000FF91EF919F918F912F910F900FBE0F90AE
:100720001F901895789484B5826084BD84B58160EB
:1007300084BD85B5826085BD85B5816085BD8091AC
:100740006E00816080936E00109281008091810024
:10075000826080938100809181008160809381001C
:10076000809180008160809380008091B1008460DE
:100770008093B1008091B00081608093B00080913F
:100780007A00846080937A0080917A0082608093FE
:100790007A0080917A00816080937A0080917A005B
:1007A000806880937A001092C100E0915A01F09124
:1007B0005B0182E08083E0915601F0915701108245
:1007C000E0915801F09159018FEC80831092620101
:1007D000E0915E01F0915F0186E08083E0915C0131
:1007E000F0915D01808180618083E0915C01F091F6
:1007F0005D01808188608083E0915C01F0915D0102
:10080000808180688083E0915C01F0915D0180814E
:100810008F7D8083C1E0D0E010913A011A3088F5D5
:1008200080E10E946A0020913F0130914001820FD7
:10083000931F9093400180933F0181E10E946A00E1
:1008400020913D0130913E01820F931F90933E0114
:1008500080933D0184E10E946A0020913B01309128
:100860003C01820F931F90933C0180933B011F5FDB
:1008700010933A016AE070E080E090E00E94A600E8
:10088000CBCF60913F0170914001072E000C880B87
:10089000990B0E94EC0620E030E040E251E40E9417
:1008A00049062CEE31E540EA50E40E94A10720E021
:1008B00030E040E85AE30E94A1076B017C0160919F
:1008C0003D0170913E01072E000C880B990B0E9490
:1008D000EC0620E030E040E251E40E9449062CEEB4
:1008E00031E540EA50E40E94A10720E030E040E812
:1008F0005AE30E94A1074B015C0160913B0170919A
:100900003C01072E000C880B990B0E94EC0620E09E
:1009100030E040E251E40E9449062CEE31E540EA25
:1009200050E40E94A10720E030E040E85AE30E9432
:10093000A1072B013C0110923A0110922D01109257
:100940002C011092400110923F0110923E01109232
:100950003D0110923C0110923B0110922B0110922C
:100960002A012DEC3CEC48E351E4C701B6010E949A
:10097000A1076B017C01609336017093370180936E
:1009800038019093390120E030E040E85FE30E94B5
:100990009C07181624F4D0932B01C0932A012AE94E
:1009A00039E94DE251E4C501B4010E94A107A70154
:1009B00096010E94D7054B015C0160933201709350
:1009C0003301809334019093350120E030E040E81A
:1009D0005FE30E949C0718164CF480912A019091C5
:1009E0002B01019690932B0180932A0120E030E0A7
:1009F00040E05FE3C301B2010E949C07181614F5A2
:100A00002AE939E941E351E4C301B2010E94A10797
:100A1000A70196010E94D705A50194010E94D70560
:100A200060932E0170932F018093300190933101D8
:100A300080912A0190912B01019690932B01809334
:100A40002A0108C010922E0110922F01109230013D
:100A500010923101A5019401C701B6010E94D80589
:100A600020912E0130912F014091300150913101A0
:100A70000E94D80560932601709327018093280176
:100A8000909329018CE191E00E94D701C0902A0146
:100A9000D0902B010D2C000CEE08FF08F7FE0CC0C7
:100AA0008DE20E945F0066277727CB016C197D09D4
:100AB0008E099F094AE003C04AE0C701B6010E94BF
:100AC000E9018EE191E00E94D701609136017091B9
:100AD000370180913801909139010E942A028EE1FC
:100AE00091E00E94D70160913201709133018091B1
:100AF0003401909135010E942A028EE191E00E941A
:100B0000D70160912E0170912F0180913001909159
:100B100031010E942A028EE191E00E94D70160918A
:100B200026017091270180912801909129010E944E
:100B30002A0280E291E00E94D70182E291E00E94C5
:100B4000D7016AEF70E080E090E00E94A6000E946A
:100B5000CD0162CEEAE4F1E01382128288EE93E0E6
:100B6000A0E0B0E084839583A683B78384E091E01E
:100B70009183808385EC90E09587848784EC90E076
:100B80009787868780EC90E0918B808B81EC90E05A
:100B9000938B828B82EC90E0958B848B86EC90E03B
:100BA000978B868B118E128E138E148E089550584B
:100BB000BB27AA270E94EF050C9462070E945407E6
:100BC00038F00E945B0720F039F49F3F19F426F4B7
:100BD0000C9451070EF4E095E7FB0C944B07E92FBA
:100BE0000E94730758F3BA176207730784079507C3
:100BF00020F079F4A6F50C9495070EF4E0950B2EF1
:100C0000BA2FA02D0B01B90190010C01CA01A0015E
:100C10001124FF27591B99F0593F50F4503E68F1B9
:100C20001A16F040A22F232F342F4427585FF3CFFA
:100C3000469537952795A795F0405395C9F77EF4CB
:100C40001F16BA0B620B730B840BBAF09150A1F014
:100C5000FF0FBB1F661F771F881FC2F70EC0BA0F9A
:100C6000621F731F841F48F4879577956795B79522
:100C7000F7959E3F08F0B0CF9395880F08F099271D
:100C8000EE0F9795879508950E94270708F481E055
:100C900008950E945D060C9462070E945B0758F05D
:100CA0000E94540740F029F45F3F29F00C944B0751
:100CB00051110C9496070C9451070E94730768F326
:100CC0009923B1F3552391F3951B550BBB27AA2705
:100CD00062177307840738F09F5F5F4F220F331F3F
:100CE000441FAA1FA9F335D00E2E3AF0E0E832D007
:100CF00091505040E695001CCAF72BD0FE2F29D00A
:100D0000660F771F881FBB1F261737074807AB07DB
:100D1000B0E809F0BB0B802DBF01FF2793585F4F50
:100D20003AF09E3F510578F00C944B070C949607CF
:100D30005F3FE4F3983ED4F3869577956795B79532
:100D4000F7959F5FC9F7880F911D9695879597F93D
:100D50000895E1E0660F771F881FBB1F62177307B6
:100D60008407BA0720F0621B730B840BBA0BEE1FCB
:100D700088F7E09508950E947B0788F09F5798F0C8
:100D8000B92F9927B751B0F0E1F0660F771F881F90
:100D9000991F1AF0BA95C9F714C0B13091F00E94AA
:100DA0009507B1E008950C949507672F782F882751
:100DB000B85F39F0B93FCCF3869577956795B395D1
:100DC000D9F73EF490958095709561957F4F8F4F40
:100DD0009F4F0895E89409C097FB3EF49095809545
:100DE000709561957F4F8F4F9F4F9923A9F0F92FF1
:100DF00096E9BB279395F695879577956795B7956F
:100E0000F111F8CFFAF4BB0F11F460FF1BC06F5F54
:100E10007F4F8F4F9F4F16C0882311F096E911C066
:100E2000772321F09EE8872F762F05C0662371F087
:100E300096E8862F70E060E02AF09A95660F771F9B
:100E4000881FDAF7880F9695879597F90895990F77
:100E50000008550FAA0BE0E8FEEF16161706E80784
:100E6000F907C0F012161306E407F50798F0621BA5
:100E7000730B840B950B39F40A2661F0232B242B7A
:100E8000252B21F408950A2609F4A140A6958FEF99
:100E9000811D811D089597F99F6780E870E060E0EB
:100EA00008959FEF80EC089500240A941616170603
:100EB00018060906089500240A941216130614064B
:100EC00005060895092E0394000C11F4882352F0AE
:100ED000BB0F40F4BF2B11F460FF04C06F5F7F4F66
:100EE0008F4F9F4F089557FD9058440F551F59F04D
:100EF0005F3F71F04795880F97FB991F61F09F3F07
:100F000079F087950895121613061406551FF2CF2F
:100F10004695F1DF08C0161617061806991FF1CF7F
:100F200086957105610508940895E894BB276627A6
:100F30007727CB0197F908950E94270708F48FEFD0
:100F400008950E94B4070C9462070E94540738F079
:100F50000E945B0720F0952311F00C944B070C9432
:100F6000510711240C9496070E94730770F3959F04
:100F7000C1F3950F50E0551F629FF001729FBB2790
:100F8000F00DB11D639FAA27F00DB11DAA1F649F2C
:100F90006627B00DA11D661F829F2227B00DA11DDF
:100FA000621F739FB00DA11D621F839FA00D611D65
:100FB000221F749F3327A00D611D231F849F600D86
:100FC000211D822F762F6A2F11249F5750409AF0AF
:100FD000F1F088234AF0EE0FFF1FBB1F661F771F3B
:100FE000881F91505040A9F79E3F510580F00C9406
:100FF0004B070C9496075F3FE4F3983ED4F3869535
:1010000077956795B795F795E7959F5FC1F7FE2BA5
:10101000880F911D9695879597F908950E94270747
:10102000880B990B0895A1E21A2EAA1BBB1BFD0188
:101030000DC0AA1FBB1FEE1FFF1FA217B307E407B7
:10104000F50720F0A21BB30BE40BF50B661F771F0F
:10105000881F991F1A9469F76095709580959095EF
:101060009B01AC01BD01CF010895EE0FFF1F05905C
:10107000F491E02D099481E090E0F8940C944008FC
:04108000F894FFCF12
:10108400000000006401E0002D010B011F01AB0111
:101094006E616E00696E66006F7666003C002C001F
:0610A4003E000D0A0000F1
:00000001FF
