:100000000C94DD020C9405030C9405030C94050379
:100010000C9405030C9405030C9405030C94050340
:100020000C9405030C9405030C9405030C94050330
:100030000C9405030C9405030C9405030C94050320
:100040000C945E0A0C9405030C9405030C940503B0
:100050000C9405030C9405030C9405030C94050300
:100060000C9405030C94050300000000003E5B4F58
:100070005B3E3E6B4F6B3E1C3E7C3E1C183C7E3C08
:10008000181C577D571C1C5E7F5E1C00183C180016
:10009000FFE7C3E7FF0018241800FFE7DBE7FF30A6
:1000A000483A060E2629792926407F050507407F14
:1000B00005253F5A3CE73C5A7F3E1C1C08081C1C87
:1000C0003E7F14227F22145F5F005F5F06097F017D
:1000D0007F006689956A606060606094A2FFA29468
:1000E00008047E040810207E201008082A1C080836
:1000F0001C2A08081E101010100C1E0C1E0C303884
:100100003E3830060E3E0E06000000000000005F84
:1001100000000007000700147F147F14242A7F2AA0
:100120001223130864623649562050000807030062
:10013000001C2241000041221C002A1C7F1C2A08AE
:10014000083E080800807030000808080808000011
:1001500060600020100804023E5149453E00427F85
:10016000400072494949462141494D331814127FD4
:100170001027454545393C4A494931412111090774
:100180003649494936464949291E000014000000F5
:1001900040340000000814224114141414140041C7
:1001A00022140802015909063E415D594E7C121184
:1001B000127C7F494949363E414141227F414141BC
:1001C0003E7F494949417F090909013E4141517337
:1001D0007F0808087F00417F41002040413F017FA8
:1001E000081422417F404040407F021C027F7F0470
:1001F00008107F3E4141413E7F090909063E4151B9
:10020000215E7F09192946264949493203017F01A8
:10021000033F4040403F1F2040201F3F4038403FA9
:10022000631408146303047804036159494D4300BF
:100230007F4141410204081020004141417F0402F6
:10024000010204404040404000030708002054548D
:1002500078407F284444383844444428384444286B
:100260007F385454541800087E090218A4A49C78BE
:100270007F0804047800447D40002040403D007F1A
:100280001028440000417F40007C047804787C08FA
:100290000404783844444438FC18242418182424CE
:1002A00018FC7C08040408485454542404043F44B3
:1002B000243C4040207C1C2040201C3C4030403CE2
:1002C00044281028444C9090907C4464544C440042
:1002D00008364100000077000000413608000201A6
:1002E0000204023C2623263C1EA1A161123A404092
:1002F000207A38545455592155557941225454780F
:1003000042215554784020545579400C1E527212A7
:100310003955555559395454545939555454580030
:1003200000457C410002457D420001457C407D1234
:1003300011127DF0282528F07C5455450020545496
:100340007C547C0A097F4932494949323A44444441
:100350003A324A4848303A4141217A3A424020787C
:10036000009DA0A07D3D4242423D3D4040403D3C7D
:1003700024FF2424487E4943662B2FFC2F2BFF09A2
:1003800029F620C0887E0903205454794100004496
:100390007D413048484A32384040227A007A0A0A81
:1003A000727D0D19317D2629292F282629292926F4
:1003B00030484D4020380808080808080808382F39
:1003C00010C8ACBA2F102834FA00007B00000814C3
:1003D0002A142222142A14085500550055AA55AA99
:1003E00055AAFF55FF55FF000000FF00101010FF39
:1003F00000141414FF001010FF00FF1010F010F094
:10040000141414FC001414F700FF0000FF00FF1484
:1004100014F404FC141417101F10101F101F1414D0
:10042000141F00101010F0000000001F101010101A
:100430001F10101010F010000000FF10101010100E
:1004400010101010FF10000000FF140000FF00FF4C
:1004500000001F10170000FC04F4141417101714E8
:1004600014F404F40000FF00F7141414141414140A
:10047000F700F7141414171410101F101F1414147D
:10048000F4141010F010F000001F101F0000001FE7
:1004900014000000FC140000F010F01010FF10FF1A
:1004A000141414FF141010101F00000000F010FFAF
:1004B000FFFFFFFFF0F0F0F0F0FFFFFF0000000093
:1004C00000FFFF0F0F0F0F0F3844443844FC4A4A17
:1004D0004A347E02020606027E027E0263554941CC
:1004E000633844443C04407E201E2006027E020203
:1004F00099A5E7A5991C2A492A1C4C7201724C3017
:100500004A4D4D303048784830BC625A463D3E49ED
:100510004949007E0101017E2A2A2A2A2A44445F91
:10052000444440514A444040444A51400000FF0185
:1005300003E080FF000008086B6B08361236243693
:10054000060F090F060000181800000010100030F8
:1005500040FF0101001F01011E00191D1712003C80
:100560003C3C3C00000000000000000800020100CC
:10057000000304070000000000000000000000006D
:10058000250028002B0000000000240027002A007E
:100590000404040404040404020202020202030329
:1005A0000303030301020408102040800102040831
:1005B00010200102040810200E0C11241FBECFEFE2
:1005C000D8E0DEBFCDBF13E0A0E0B1E0E6E9F8E19E
:1005D00002C005900D92A434B107D9F723E0A4E43A
:1005E000B3E001C01D92A337B207E1F712E0CDEDF1
:1005F000D2E004C02197FE010E943E0CCC3DD10701
:10060000C9F70E94A80A0C94490C0C94000090E0D1
:10061000FC01EC55FA4F2491FC01E057FA4F84910C
:10062000882399F090E0880F991FFC01EA57FA4F50
:10063000A591B491FC01E458FA4F859194918FB73C
:10064000F894EC91E22BEC938FBF0895909168039E
:100650009F3F21F4909169039F3F59F128E030E0DA
:1006600040E8E0916F03F091700350819091720324
:10067000909595239083E0916D03F0916E03909196
:100680007103542F582319F05081952B03C05081CA
:10069000909595239083E0916F03F09170035081C2
:1006A00090917203952B9083469521503109C9F69C
:1006B00008958EBD00000DB407FEFDCF8EB50895E0
:1006C000CF92DF92EF92FF920F931F93CF93DF931E
:1006D0006C017A018B01C0E0D0E0CE15DF0589F016
:1006E000D8016D918D01D601ED91FC910190F081C1
:1006F000E02DC6010995892B11F47E0102C02196D7
:10070000ECCFC701DF91CF911F910F91FF90EF9038
:10071000DF90CF90089590E0FC01E859FA4F3491B2
:10072000FC01EC55FA4F2491FC01E057FA4FE4919B
:10073000EE2309F43BC0332339F1333091F038F420
:100740003130A9F0323001F584B58F7D12C03730D9
:1007500091F03830A1F03430B9F4809180008F7D71
:1007600003C0809180008F77809380000DC084B596
:100770008F7784BD09C08091B0008F7703C08091CE
:10078000B0008F7D8093B000F0E0EE0FFF1FE458C3
:10079000FA4FA591B4918FB7F894EC91611103C011
:1007A00020952E2301C02E2B2C938FBF0895CF931D
:1007B000C82F60E080916A030E948B0380916C03D4
:1007C00018161CF460E00E948B038C2F0E942603F5
:1007D00080916C03181624F461E0CF910C948B0384
:1007E000CF910895EF92FF920F931F93CF9380E0E4
:1007F000E82E81E0F82EC0E08C2F80640E94D703A1
:1008000080E80E94D70361E080916A030E948B0315
:1008100080916C0318161CF460E00E948B0300E0CA
:1008200010E0F701E00FF11F80810E9426030F5FA7
:100830001F4F04351105A9F780916C0318161CF49D
:1008400061E00E948B03CF5F84E5E80EF11CC630A7
:1008500099F680E4CF911F910F91FF90EF900C9447
:10086000D7033FB7F8948091490390914A03A09130
:100870004B03B0914C0326B5A89B05C02F3F19F040
:100880000196A11DB11D3FBFBA2FA92F982F882710
:10089000820F911DA11DB11DBC01CD0142E0660F6B
:1008A000771F881F991F4A95D1F708950895FC0175
:1008B0006370658B8481958126813781613039F041
:1008C000633029F0918780873387228708953187A5
:1008D00020879387828708952F923F924F925F924D
:1008E0006F927F928F929F92AF92BF92CF92DF9240
:1008F000EF92FF920F931F93CF93DF93CDB7DEB7A5
:100900006C970FB6F894DEBF0FBECDBF9C8F8B8F58
:100910001B012A0118870F83FE82ED82CA82DC0147
:1009200058964D915C9159974115510509F0B2C007
:1009300018968D919C911997681779070CF096C1BC
:100940001A968D919C911B97481659060CF08EC1F2
:10095000AC2CB12CCB01B6E0CB9E800D911D1124A7
:10096000181619060CF082C1C50133E0880F991FD3
:100970003A95E1F7840D951D181619060CF076C10D
:10098000AB8DBC8D57968C91811103C0203B08F034
:100990002F5FAB8DBC8DED91FC9111970680F78197
:1009A000E02DCD012A8F09952A8DB5E02B9F90016E
:1009B0001124610141011B82F901E219F309FA874F
:1009C000E9879201285F3F4F3C872B873B81353079
:1009D00049F0E985FA85E80DF91DE859FF4F449182
:1009E000498301C0198232011201598150FF13C09D
:1009F000AB8DBC8DED91FC91BA81B13031F40084A6
:100A0000F185E02D2F81388519C00284F385E02D12
:100A1000EF80F8841EC0ED81FE812F813885E217BA
:100A2000F307F1F0AB8DBC8DED91FC91BA81B13043
:100A300059F40084F185E02D2D813E81A301B4019C
:100A40008B8D9C8D09950CC00284F385E02DED8083
:100A5000FE8085019501A101B6018B8D9C8D0995C4
:100A6000E981E695E983FFEF6F1A7F0A2A0C3B1CA8
:100A70002B853C856216730609F0B7CF3B813F5F3B
:100A80003B834FEF841A940ACA0CDB1C363009F002
:100A90009DCFCAC0FA0134969491329765917491B2
:100AA000291BCB01B7E02B9F800D911D1124FA016A
:100AB000259134913A8B298BFC0165907490FC014F
:100AC000329634913D83319644914B873296C4904F
:100AD000319614915A81523058F08C2C0C2C000C09
:100AE0009908812F012E000C990B9C838B8304C0E5
:100AF0001C821B82812C912CAB8DBC8DED91FC91C5
:100B000011970680F781E02DCD010995BA81AB2EB2
:100B1000B12C8A9CC0018B9C900D9A9C900D112445
:100B2000FC01E20DF31DF88BEF871982912C812CCB
:100B3000EC2DCC0CFF0B91012E0F3F1F3A8729871C
:100B400061013D81C30ED11CA6014E0F5F1F5F8B5B
:100B50004E8BC201810F911D17FD9A95998F888F39
:100B60005B85851608F060C0882D90E04B815C8124
:100B7000480F591F4A9D90014B9D300D5A9D300DD5
:100B80001124D901A40DB51DBE87AD87C984DA84AF
:100B90002F843888B981E985BE1BBB8B288D398DA0
:100BA000280F391F3D8B2C8B8B898C0D2E893F890B
:100BB000C216D30699F1877041F4C3010196E98901
:100BC000FA89E60DF71D94903C0197FE20C0AB8D8D
:100BD000BC8DED91FC91BA81B13061F40084F18556
:100BE000E02D2F8138854C895D89B6018B8D9C8DD8
:100BF00009950DC00284F385E02DEF80F88485010E
:100C000095014D855E85B1018B8D9C8D0995990C63
:100C1000EFEFCE1ADE0A2A0C3B1CC6CF39814D817C
:100C2000340F398383949CCFAB8DBC8DED91FC91B7
:100C300011970288F389E02DCD016C960FB6F894D8
:100C4000DEBF0FBECDBFDF91CF911F910F91FF90FF
:100C5000EF90DF90CF90BF90AF909F908F907F905C
:100C60006F905F904F903F902F9009946C960FB6C5
:100C7000F894DEBF0FBECDBFDF91CF911F910F91D2
:100C8000FF90EF90DF90CF90BF90AF909F908F90AC
:100C90007F906F905F904F903F902F900895AF920C
:100CA000BF92CF92EF92FF920F931F93CF93DF9358
:100CB000EC01262F888D998D009709F042C06A308B
:100CC00069F42C898E859F8538E0239F800D911DC6
:100CD00011249F878E871D861C86ACC06D3009F459
:100CE000A9C08E898823C1F03C898C859D8546E00A
:100CF000349F800D911D11244885598584179507CF
:100D00005CF01D861C868E859F85E8E03E9F800DE9
:100D1000911D11249F878E87EA88FB88088919898D
:100D20004E855F856C857D85CC88CE010E946C04E4
:100D30002C898C859D85F6E02F9F800D911D1124B7
:100D400041C06A3079F41D861C862C89FC013696D8
:100D5000E4918E859F852E9F800D911D11249F8784
:100D60008E8768C06D3009F465C0AC014C5F5F4F81
:100D7000FA013491631708F45DC03196E491E617E7
:100D800008F458C0FA014491362F341BFC01329606
:100D9000A590B490F7E03F9FA00CB11C1124F50181
:100DA000329634913196E491332311F0E1110DC064
:100DB000F5013496E4912C898C859D85E29F800D08
:100DC000911D11249D878C8735C0F501359644917E
:100DD0005E89552311F16C89E32FF0E0E40FF11DDA
:100DE00047FDFA956E9FD0016F9FB00D11244C8581
:100DF0005D854A0F5B1FE885F9854E175F076CF02C
:100E00001D861C86FC013696E4918E859F856E9F1B
:100E1000800D911D11249F878E87EA88FB880889A1
:100E200019894E855F856C857D85CC88CE010E94B1
:100E30006C04BECF81E090E0DF91CF911F910F91C4
:100E4000FF90EF90CF90BF90AF9008956F927F92F8
:100E50008F929F92AF92BF92CF92DF92EF92FF92CA
:100E60000F931F93CF93DF93EC014B015A0169015C
:100E70003801E881F9810680F781E02D0995E88144
:100E8000F9810684F785E02D87019601A501B4015B
:100E9000CE010995E881F981A501460D571D415004
:100EA00051090684F785E02D9601B401CE0109951C
:100EB000E881F9810484F585E02D9301A501B40151
:100EC000CE010995E881F981C80CD91CB6016150A1
:100ED00071090484F585E02D9301A501CE010995E2
:100EE000E881F9810288F389E02DCE01DF91CF916D
:100EF0001F910F91FF90EF90DF90CF90BF90AF9038
:100F00009F908F907F906F900994AF92BF92CF92F5
:100F1000DF92EF92FF920F931F93CF93DF9300D056
:100F200000D0CDB7DEB75C016901DC01ED91FC9129
:100F30006217730781F4008CF18DE02D04171507FB
:100F40001CF0CA01980102C09A01C801281B390B84
:100F50002F5F3F4F14C04017510719F59B016C15C7
:100F60007D050CF49601CB01C616D7060CF4C6011C
:100F7000281B390B2F5F3F4F028CF38DE02D87012B
:100F8000C50109950F900F900F900F90DF91CF91B1
:100F90001F910F91FF90EF90DF90CF90BF90AF9097
:100FA00008950680F781E02D4B835C8369837A8303
:100FB0000995D501ED91FC910088F189E02D96010C
:100FC0004B815C8169817A81C5010995D501ED91DB
:100FD000FC910288F389E02DC5010F900F900F90CE
:100FE0000F90DF91CF911F910F91FF90EF90DF90C5
:100FF000CF90BF90AF900994EF92FF920F931F9301
:10100000DC01ED91FC9111971A960D911C911B97A3
:1010100018962D913C911997048CF58DE02D7B014C
:1010200040E050E060E070E009951F910F91FF9063
:10103000EF9008954F925F926F927F928F929F925E
:10104000AF92BF92CF92DF92EF92FF920F931F93D6
:10105000CF93DF9300D0CDB7DEB76C015A013901D1
:101060004801DC01ED91FC910680F781E02D698358
:101070007A8309956981462E7A81572E640C751CF6
:10108000D601ED91FC91461457046CF40484F58567
:10109000E02D87019401A501B201C6010995BFEFBA
:1010A0004B1A5B0AEDCF0288F389E02DC6010F9041
:1010B0000F90DF91CF911F910F91FF90EF90DF90F4
:1010C000CF90BF90AF909F908F907F906F905F90E8
:1010D0004F900994AF92BF92CF92DF92EF92FF921E
:1010E0000F931F93CF93DF9300D000D0CDB7DEB71F
:1010F0005C016901DC01ED91FC910680F781E02D36
:101100004B835C8369837A830995D501ED91FC91CA
:1011100069817A819B012C0D3D1D21503109008888
:10112000F189E02D78014B815C818A01C501099527
:10113000D501ED91FC910288F389E02DC5010F9056
:101140000F900F900F90DF91CF911F910F91FF9013
:10115000EF90DF90CF90BF90AF900994AF92BF9285
:10116000CF92DF92EF92FF920F931F93CF93DF9373
:1011700000D000D0CDB7DEB75C016901DC01ED9194
:10118000FC910680F781E02D4B835C8369837A8331
:101190000995D501ED91FC914B815C81C40ED51E62
:1011A000B1E0CB1AD1080088F189E02D78018601E1
:1011B00069817A819B01C5010995D501ED91FC9169
:1011C0000288F389E02DC5010F900F900F900F90CA
:1011D000DF91CF911F910F91FF90EF90DF90CF9013
:1011E000BF90AF9009940895EF92FF920F931F93D1
:1011F000DC01ED91FC91048CF58DE02D09951F919A
:101200000F91FF90EF9008950F931F93DC01ED91E4
:10121000FC91028CF38DE02D09951F910F9108959B
:101220000F931F93DC01ED91FC91008CF18DE02D6B
:1012300009951F910F910895DC01ED91FC910480B7
:10124000F581E02D099408952F923F924F925F927D
:101250006F927F928F929F92AF92BF92CF92DF92C6
:10126000EF92FF920F931F93CF93DF9300D01F92C3
:10127000CDB7DEB74C017B836A836A015901170140
:101280009801241B350B37FF03C031952195310997
:10129000C5014A815B81841B950B97FF03C0919523
:1012A0008195910951E059838217930714F01982AF
:1012B0000BC09A2D8B2D5801092F182F9A818B81E5
:1012C000DB82CA82C92ED82E8A819B81A816B906D4
:1012D0005CF49C2D8D2D6801092F182F9A818B812C
:1012E000BB82AA82A92EB82E2501AA81BB814A1AE7
:1012F0005B0A38016C187D0877FE03C07194619415
:101300007108720157FE03C0BFEFEB1AFB0AF59498
:10131000E794C016D1061CF00FEF1FEF1FC001E0CD
:1013200010E01CC0D401ED91FC91B9810084F185DD
:10133000E02D9101BB23C1F04A815B81B601C4015C
:101340000995E618F708F7FE04C0C00ED11EE40C9C
:10135000F51CEA81FB813196FB83EA834A815B813C
:10136000A416B506FCF604C0A6016A817B81E7CF0E
:101370000F900F900F90DF91CF911F910F91FF90E1
:10138000EF90DF90CF90BF90AF909F908F907F9025
:101390006F905F904F903F902F900895FC0177FDE4
:1013A00068C080859185681779070CF062C057FD89
:1013B00060C082859385481759070CF05AC085890B
:1013C000823059F08330B1F08130D1F48FE290E077
:1013D000861B970BBA01AC0113C083E590E0FC01BA
:1013E000E61BF70BBF018FE290E0FC01E41BF50B5D
:1013F000AF0106C083E590E0841B950BAB01BC01F7
:1014000064357105B0F54033510598F5CA01E3E044
:1014100095958795EA95E1F747705527232BA1F01D
:1014200024E5289FF001299FF00D11246E0F7F1FE6
:10143000FB01E050FF4F81E090E001C0880F4A952A
:10144000EAF79081892B14C024E5289FF001299F99
:10145000F00D11246E0F7F1FFB01E050FF4F81E064
:1014600090E001C0880F4A95EAF780959081892322
:1014700080830895CF93DF93009779F0FC0101906A
:101480000020E9F73197AF01481B590BBC018EE4EE
:1014900093E00E946003EC0102C0C0E0D0E042E0B3
:1014A00050E060E273E08EE493E00E9460038C0FF2
:1014B0009D1FDF91CF9108950E94440C1F920F92BF
:1014C0000FB60F9211242F933F938F939F93AF9357
:1014D000BF938091450390914603A0914703B0913B
:1014E00048033091440323E0230F2D3720F4019665
:1014F000A11DB11D05C026E8230F0296A11DB11D37
:10150000209344038093450390934603A09347039D
:10151000B09348038091490390914A03A0914B03F3
:10152000B0914C030196A11DB11D80934903909386
:101530004A03A0934B03B0934C03BF91AF919F918B
:101540008F913F912F910F900FBE0F901F90189584
:10155000789484B5826084BD84B5816084BD85B58E
:10156000826085BD85B5816085BD80916E0081609A
:1015700080936E0010928100809181008260809340
:101580008100809181008160809381008091800042
:101590008160809380008091B10084608093B1006D
:1015A0008091B00081608093B00080917A00846067
:1015B00080937A0080917A00826080937A00809193
:1015C0007A00816080937A0080917A0080688093AD
:1015D0007A001092C1008CE00E94070360E08CE06A
:1015E0000E948B03809168038F3F29F490916903D7
:1015F0009F3F09F4D6C00E940703809169030E94AF
:10160000070380916903082E000C990BFC01E05739
:10161000FA4FE491F0E0EE0FFF1FE458FA4F2591E6
:1016200034913093700320936F03FC01EC55FA4F13
:10163000E491E093720380916803082E000C990BEB
:10164000FC01E057FA4FE491F0E0EE0FFF1FE45881
:10165000FA4F2591349130936E0320936D03FC0172
:10166000EC55FA4FE491E093710380916A030E9474
:10167000070380916B03181614F40E9407038091EE
:101680006C03181614F40E94070380916B0318165C
:101690007CF560E00E948B030E9431044B015C01E9
:1016A00064EFC62EDD24D394E12CF12C0E9431048A
:1016B000DC01CB0188199909AA09BB09883E93402E
:1016C000A105B10558F021E0C21AD108E108F108DE
:1016D00038EE830E33E0931EA11CB11CC114D1045B
:1016E000E104F10419F761E080916B030E948B0320
:1016F00081E20E94D70384E10E94D70388EA0E9416
:10170000D70380E20E94D7038CE00E94D7030E9497
:10171000F20381E20E94D70384E90E94D70380E2AA
:101720000E94D70388EF91E0E0E0F1E0DF019C0147
:101730001D9221503040E1F77F0148EFC42EDD2497
:10174000D39450E0A52E50E0B52EC1E001E010E0AA
:10175000D701F6011D923197E9F710925B031092C1
:101760005A0310925D0310925C03C09362031093BE
:1017700061030093600310935F0300935E0383E2B1
:1017800093E00E943A0AC09362038CE293E00E94C5
:101790003A0A0E94F203A114B104D1F20E9400009F
:1017A000D7CFFFB6F89480914D03811124C0EAE9A8
:1017B000F5E08491EEEAF5E09491E82FF0E0EE0F89
:1017C000FF1FEA57FA4FA591B491EC91E92321F458
:1017D00061E08AE00E948B038AE00E9407038CB5D7
:1017E00080618CBD8CB580648CBD8DE00E94070348
:1017F0008BE00E94070380914D038F5F80934D0320
:10180000FFBE8CB58C7F8CBD8DB58E7F8DBD8CB5AC
:10181000837F8CBD8CB58F7D8CBD27CFEEE4F3E04C
:101820001382128224E530E03583248380E390E044
:10183000978386833187208793878287158A1586C9
:1018400014861786168681E0848B2FEF3FEF338B4B
:10185000228B318B208B868B178A118E108E8CEF0A
:1018600092E09183808386E0828F87E0838F85E09A
:10187000848F83E0858F84E0868F0895EE0FFF1FAD
:101880000590F491E02D099481E090E0F8940C9497
:06189000490CF894FFCFA3
:101896000000000000000000000000000000000042
:1018A6000000000000000000000000000000000032
:1018B600000000000000C0E0F0F8FCFCFEFFFCE0C9
:1018C6000000000000000000000000000000000012
:1018D6000000000000000000000000000000000002
:1018E60000000000000000000000000000000000F2
:1018F6000000000000F8F8F8F8F8F8F8F8F8F8F83A
:10190600F8F0F0E0E0C080C0FCFFFFFFFF7F3F7F04
:10191600FFFFFFFFFF0000000000000000000000C6
:1019260000000000000000000000000000000000B1
:1019360000000000000000000000000000000000A1
:10194600000000000000000000000F1F3F7FFFFFA7
:10195600FFFFFFFFFFFFE7C7C7878F9F9FFFFFFFC1
:10196600C1C0E0FCFFFFFFFFFFFCFCFCFCFEFEFE2F
:10197600FCFCF8F8F0E0C0C0000000000000000029
:101986000000000000000000000000000000000051
:101996000000000000000000000000000000000041
:1019A6000080C0E0F1FBFFFFFFFFFF7F1F0F0F87E7
:1019B600E7FFFFFF1F1F3FF9F8F8F8F8F8F8FDFFFB
:1019C600FFFFFFFFFFFFFFFF7F3F0F070100000044
:1019D6000000000000000000000000000000000001
:1019E60000000000000000000000000000000000F1
:1019F600000000F0FEFFFFFFFFFFFFFFFFFFFFFEFF
:101A06007E3F3F0F1FFFFFFFFCF0E0F1FFFFFFFFF0
:101A1600FFFCF001010101010101010000000000CD
:101A260000000000000000000000000000000000B0
:101A360000000000000000000000000000000000A0
:101A46000000000000000003030303030303030177
:101A560001010100000000000000030F1F3F7F7F0F
:101A6600FFFFFFFF7F7F1F03000000000000000054
:101A76000000000000000000000000000000000060
:101A86000000000000000000000000004F06600398
:101A9600CE0923091C09F408100904092409F308CE
:101AA60057045604AE086A081A08FC078507260775
:101AB6000D0A00526F746174696F6E00456475613A
:101AC60072646F2052616661656C204C75646F7636
:041AD60069636F00D1
:00000001FF
